{
  "_format": "hh3-artifact-1",
  "contractName": "ConfidentialUSDX402",
  "sourceName": "contracts/cUSDX402.sol",
  "abi": [
    {
      "inputs": [
        {
          "internalType": "string",
          "name": "name",
          "type": "string"
        },
        {
          "internalType": "string",
          "name": "symbol",
          "type": "string"
        },
        {
          "internalType": "string",
          "name": "uri",
          "type": "string"
        },
        {
          "internalType": "address",
          "name": "_facilitator",
          "type": "address"
        },
        {
          "internalType": "contract IERC20",
          "name": "underlying",
          "type": "address"
        }
      ],
      "stateMutability": "nonpayable",
      "type": "constructor"
    },
    {
      "inputs": [],
      "name": "ECDSAInvalidSignature",
      "type": "error"
    },
    {
      "inputs": [
        {
          "internalType": "uint256",
          "name": "length",
          "type": "uint256"
        }
      ],
      "name": "ECDSAInvalidSignatureLength",
      "type": "error"
    },
    {
      "inputs": [
        {
          "internalType": "bytes32",
          "name": "s",
          "type": "bytes32"
        }
      ],
      "name": "ECDSAInvalidSignatureS",
      "type": "error"
    },
    {
      "inputs": [
        {
          "internalType": "uint256",
          "name": "requestId",
          "type": "uint256"
        }
      ],
      "name": "ERC7984InvalidGatewayRequest",
      "type": "error"
    },
    {
      "inputs": [
        {
          "internalType": "address",
          "name": "receiver",
          "type": "address"
        }
      ],
      "name": "ERC7984InvalidReceiver",
      "type": "error"
    },
    {
      "inputs": [
        {
          "internalType": "address",
          "name": "sender",
          "type": "address"
        }
      ],
      "name": "ERC7984InvalidSender",
      "type": "error"
    },
    {
      "inputs": [
        {
          "internalType": "address",
          "name": "caller",
          "type": "address"
        }
      ],
      "name": "ERC7984UnauthorizedCaller",
      "type": "error"
    },
    {
      "inputs": [
        {
          "internalType": "address",
          "name": "holder",
          "type": "address"
        },
        {
          "internalType": "address",
          "name": "spender",
          "type": "address"
        }
      ],
      "name": "ERC7984UnauthorizedSpender",
      "type": "error"
    },
    {
      "inputs": [
        {
          "internalType": "euint64",
          "name": "amount",
          "type": "bytes32"
        },
        {
          "internalType": "address",
          "name": "user",
          "type": "address"
        }
      ],
      "name": "ERC7984UnauthorizedUseOfEncryptedAmount",
      "type": "error"
    },
    {
      "inputs": [
        {
          "internalType": "address",
          "name": "holder",
          "type": "address"
        }
      ],
      "name": "ERC7984ZeroBalance",
      "type": "error"
    },
    {
      "inputs": [],
      "name": "InvalidKMSSignatures",
      "type": "error"
    },
    {
      "inputs": [],
      "name": "InvalidShortString",
      "type": "error"
    },
    {
      "inputs": [
        {
          "internalType": "euint64",
          "name": "amount",
          "type": "bytes32"
        }
      ],
      "name": "InvalidUnwrapRequest",
      "type": "error"
    },
    {
      "inputs": [
        {
          "internalType": "uint8",
          "name": "bits",
          "type": "uint8"
        },
        {
          "internalType": "uint256",
          "name": "value",
          "type": "uint256"
        }
      ],
      "name": "SafeCastOverflowedUintDowncast",
      "type": "error"
    },
    {
      "inputs": [
        {
          "internalType": "address",
          "name": "token",
          "type": "address"
        }
      ],
      "name": "SafeERC20FailedOperation",
      "type": "error"
    },
    {
      "inputs": [
        {
          "internalType": "string",
          "name": "str",
          "type": "string"
        }
      ],
      "name": "StringTooLong",
      "type": "error"
    },
    {
      "inputs": [],
      "name": "ZamaProtocolUnsupported",
      "type": "error"
    },
    {
      "anonymous": false,
      "inputs": [
        {
          "indexed": true,
          "internalType": "euint64",
          "name": "encryptedAmount",
          "type": "bytes32"
        },
        {
          "indexed": true,
          "internalType": "address",
          "name": "requester",
          "type": "address"
        }
      ],
      "name": "AmountDiscloseRequested",
      "type": "event"
    },
    {
      "anonymous": false,
      "inputs": [
        {
          "indexed": true,
          "internalType": "euint64",
          "name": "encryptedAmount",
          "type": "bytes32"
        },
        {
          "indexed": false,
          "internalType": "uint64",
          "name": "amount",
          "type": "uint64"
        }
      ],
      "name": "AmountDisclosed",
      "type": "event"
    },
    {
      "anonymous": false,
      "inputs": [
        {
          "indexed": true,
          "internalType": "address",
          "name": "from",
          "type": "address"
        },
        {
          "indexed": true,
          "internalType": "address",
          "name": "to",
          "type": "address"
        },
        {
          "indexed": false,
          "internalType": "euint64",
          "name": "transferred",
          "type": "bytes32"
        },
        {
          "indexed": true,
          "internalType": "bytes32",
          "name": "nonce",
          "type": "bytes32"
        }
      ],
      "name": "AuthorizationUsed",
      "type": "event"
    },
    {
      "anonymous": false,
      "inputs": [
        {
          "indexed": true,
          "internalType": "address",
          "name": "from",
          "type": "address"
        },
        {
          "indexed": true,
          "internalType": "address",
          "name": "to",
          "type": "address"
        },
        {
          "indexed": true,
          "internalType": "euint64",
          "name": "amount",
          "type": "bytes32"
        }
      ],
      "name": "ConfidentialTransfer",
      "type": "event"
    },
    {
      "anonymous": false,
      "inputs": [],
      "name": "EIP712DomainChanged",
      "type": "event"
    },
    {
      "anonymous": false,
      "inputs": [
        {
          "indexed": true,
          "internalType": "address",
          "name": "holder",
          "type": "address"
        },
        {
          "indexed": true,
          "internalType": "address",
          "name": "operator",
          "type": "address"
        },
        {
          "indexed": false,
          "internalType": "uint48",
          "name": "until",
          "type": "uint48"
        }
      ],
      "name": "OperatorSet",
      "type": "event"
    },
    {
      "anonymous": false,
      "inputs": [
        {
          "indexed": false,
          "internalType": "bytes32[]",
          "name": "handlesList",
          "type": "bytes32[]"
        },
        {
          "indexed": false,
          "internalType": "bytes",
          "name": "abiEncodedCleartexts",
          "type": "bytes"
        }
      ],
      "name": "PublicDecryptionVerified",
      "type": "event"
    },
    {
      "anonymous": false,
      "inputs": [
        {
          "indexed": true,
          "internalType": "address",
          "name": "receiver",
          "type": "address"
        },
        {
          "indexed": false,
          "internalType": "euint64",
          "name": "encryptedAmount",
          "type": "bytes32"
        },
        {
          "indexed": false,
          "internalType": "uint64",
          "name": "cleartextAmount",
          "type": "uint64"
        }
      ],
      "name": "UnwrapFinalized",
      "type": "event"
    },
    {
      "anonymous": false,
      "inputs": [
        {
          "indexed": true,
          "internalType": "address",
          "name": "receiver",
          "type": "address"
        },
        {
          "indexed": false,
          "internalType": "euint64",
          "name": "amount",
          "type": "bytes32"
        }
      ],
      "name": "UnwrapRequested",
      "type": "event"
    },
    {
      "inputs": [],
      "name": "MAX_MINT_AMOUNT",
      "outputs": [
        {
          "internalType": "uint64",
          "name": "",
          "type": "uint64"
        }
      ],
      "stateMutability": "view",
      "type": "function"
    },
    {
      "inputs": [],
      "name": "TRANSFER_WITH_AUTHORIZATION_TYPEHASH",
      "outputs": [
        {
          "internalType": "bytes32",
          "name": "",
          "type": "bytes32"
        }
      ],
      "stateMutability": "view",
      "type": "function"
    },
    {
      "inputs": [
        {
          "internalType": "address",
          "name": "",
          "type": "address"
        },
        {
          "internalType": "bytes32",
          "name": "",
          "type": "bytes32"
        }
      ],
      "name": "authorizationState",
      "outputs": [
        {
          "internalType": "bool",
          "name": "",
          "type": "bool"
        }
      ],
      "stateMutability": "view",
      "type": "function"
    },
    {
      "inputs": [
        {
          "internalType": "address",
          "name": "from",
          "type": "address"
        },
        {
          "internalType": "externalEuint64",
          "name": "amount",
          "type": "bytes32"
        },
        {
          "internalType": "bytes",
          "name": "inputProof",
          "type": "bytes"
        }
      ],
      "name": "burn",
      "outputs": [],
      "stateMutability": "nonpayable",
      "type": "function"
    },
    {
      "inputs": [
        {
          "internalType": "address",
          "name": "account",
          "type": "address"
        }
      ],
      "name": "confidentialBalanceOf",
      "outputs": [
        {
          "internalType": "euint64",
          "name": "",
          "type": "bytes32"
        }
      ],
      "stateMutability": "view",
      "type": "function"
    },
    {
      "inputs": [],
      "name": "confidentialProtocolId",
      "outputs": [
        {
          "internalType": "uint256",
          "name": "",
          "type": "uint256"
        }
      ],
      "stateMutability": "view",
      "type": "function"
    },
    {
      "inputs": [],
      "name": "confidentialTotalSupply",
      "outputs": [
        {
          "internalType": "euint64",
          "name": "",
          "type": "bytes32"
        }
      ],
      "stateMutability": "view",
      "type": "function"
    },
    {
      "inputs": [
        {
          "internalType": "address",
          "name": "to",
          "type": "address"
        },
        {
          "internalType": "externalEuint64",
          "name": "encryptedAmount",
          "type": "bytes32"
        },
        {
          "internalType": "bytes",
          "name": "inputProof",
          "type": "bytes"
        }
      ],
      "name": "confidentialTransfer",
      "outputs": [
        {
          "internalType": "euint64",
          "name": "",
          "type": "bytes32"
        }
      ],
      "stateMutability": "nonpayable",
      "type": "function"
    },
    {
      "inputs": [
        {
          "internalType": "address",
          "name": "to",
          "type": "address"
        },
        {
          "internalType": "euint64",
          "name": "amount",
          "type": "bytes32"
        }
      ],
      "name": "confidentialTransfer",
      "outputs": [
        {
          "internalType": "euint64",
          "name": "",
          "type": "bytes32"
        }
      ],
      "stateMutability": "nonpayable",
      "type": "function"
    },
    {
      "inputs": [
        {
          "internalType": "address",
          "name": "to",
          "type": "address"
        },
        {
          "internalType": "euint64",
          "name": "amount",
          "type": "bytes32"
        },
        {
          "internalType": "bytes",
          "name": "data",
          "type": "bytes"
        }
      ],
      "name": "confidentialTransferAndCall",
      "outputs": [
        {
          "internalType": "euint64",
          "name": "transferred",
          "type": "bytes32"
        }
      ],
      "stateMutability": "nonpayable",
      "type": "function"
    },
    {
      "inputs": [
        {
          "internalType": "address",
          "name": "to",
          "type": "address"
        },
        {
          "internalType": "externalEuint64",
          "name": "encryptedAmount",
          "type": "bytes32"
        },
        {
          "internalType": "bytes",
          "name": "inputProof",
          "type": "bytes"
        },
        {
          "internalType": "bytes",
          "name": "data",
          "type": "bytes"
        }
      ],
      "name": "confidentialTransferAndCall",
      "outputs": [
        {
          "internalType": "euint64",
          "name": "transferred",
          "type": "bytes32"
        }
      ],
      "stateMutability": "nonpayable",
      "type": "function"
    },
    {
      "inputs": [
        {
          "internalType": "address",
          "name": "from",
          "type": "address"
        },
        {
          "internalType": "address",
          "name": "to",
          "type": "address"
        },
        {
          "internalType": "externalEuint64",
          "name": "encryptedAmount",
          "type": "bytes32"
        },
        {
          "internalType": "bytes",
          "name": "inputProof",
          "type": "bytes"
        }
      ],
      "name": "confidentialTransferFrom",
      "outputs": [
        {
          "internalType": "euint64",
          "name": "transferred",
          "type": "bytes32"
        }
      ],
      "stateMutability": "nonpayable",
      "type": "function"
    },
    {
      "inputs": [
        {
          "internalType": "address",
          "name": "from",
          "type": "address"
        },
        {
          "internalType": "address",
          "name": "to",
          "type": "address"
        },
        {
          "internalType": "euint64",
          "name": "amount",
          "type": "bytes32"
        }
      ],
      "name": "confidentialTransferFrom",
      "outputs": [
        {
          "internalType": "euint64",
          "name": "transferred",
          "type": "bytes32"
        }
      ],
      "stateMutability": "nonpayable",
      "type": "function"
    },
    {
      "inputs": [
        {
          "internalType": "address",
          "name": "from",
          "type": "address"
        },
        {
          "internalType": "address",
          "name": "to",
          "type": "address"
        },
        {
          "internalType": "externalEuint64",
          "name": "encryptedAmount",
          "type": "bytes32"
        },
        {
          "internalType": "bytes",
          "name": "inputProof",
          "type": "bytes"
        },
        {
          "internalType": "bytes",
          "name": "data",
          "type": "bytes"
        }
      ],
      "name": "confidentialTransferFromAndCall",
      "outputs": [
        {
          "internalType": "euint64",
          "name": "transferred",
          "type": "bytes32"
        }
      ],
      "stateMutability": "nonpayable",
      "type": "function"
    },
    {
      "inputs": [
        {
          "internalType": "address",
          "name": "from",
          "type": "address"
        },
        {
          "internalType": "address",
          "name": "to",
          "type": "address"
        },
        {
          "internalType": "euint64",
          "name": "amount",
          "type": "bytes32"
        },
        {
          "internalType": "bytes",
          "name": "data",
          "type": "bytes"
        }
      ],
      "name": "confidentialTransferFromAndCall",
      "outputs": [
        {
          "internalType": "euint64",
          "name": "transferred",
          "type": "bytes32"
        }
      ],
      "stateMutability": "nonpayable",
      "type": "function"
    },
    {
      "inputs": [],
      "name": "contractURI",
      "outputs": [
        {
          "internalType": "string",
          "name": "",
          "type": "string"
        }
      ],
      "stateMutability": "view",
      "type": "function"
    },
    {
      "inputs": [],
      "name": "decimals",
      "outputs": [
        {
          "internalType": "uint8",
          "name": "",
          "type": "uint8"
        }
      ],
      "stateMutability": "view",
      "type": "function"
    },
    {
      "inputs": [
        {
          "internalType": "euint64",
          "name": "encryptedAmount",
          "type": "bytes32"
        },
        {
          "internalType": "uint64",
          "name": "cleartextAmount",
          "type": "uint64"
        },
        {
          "internalType": "bytes",
          "name": "decryptionProof",
          "type": "bytes"
        }
      ],
      "name": "discloseEncryptedAmount",
      "outputs": [],
      "stateMutability": "nonpayable",
      "type": "function"
    },
    {
      "inputs": [],
      "name": "eip712Domain",
      "outputs": [
        {
          "internalType": "bytes1",
          "name": "fields",
          "type": "bytes1"
        },
        {
          "internalType": "string",
          "name": "name",
          "type": "string"
        },
        {
          "internalType": "string",
          "name": "version",
          "type": "string"
        },
        {
          "internalType": "uint256",
          "name": "chainId",
          "type": "uint256"
        },
        {
          "internalType": "address",
          "name": "verifyingContract",
          "type": "address"
        },
        {
          "internalType": "bytes32",
          "name": "salt",
          "type": "bytes32"
        },
        {
          "internalType": "uint256[]",
          "name": "extensions",
          "type": "uint256[]"
        }
      ],
      "stateMutability": "view",
      "type": "function"
    },
    {
      "inputs": [],
      "name": "facilitator",
      "outputs": [
        {
          "internalType": "address",
          "name": "",
          "type": "address"
        }
      ],
      "stateMutability": "view",
      "type": "function"
    },
    {
      "inputs": [
        {
          "internalType": "euint64",
          "name": "burntAmount",
          "type": "bytes32"
        },
        {
          "internalType": "uint64",
          "name": "burntAmountCleartext",
          "type": "uint64"
        },
        {
          "internalType": "bytes",
          "name": "decryptionProof",
          "type": "bytes"
        }
      ],
      "name": "finalizeUnwrap",
      "outputs": [],
      "stateMutability": "nonpayable",
      "type": "function"
    },
    {
      "inputs": [
        {
          "internalType": "address",
          "name": "holder",
          "type": "address"
        },
        {
          "internalType": "address",
          "name": "spender",
          "type": "address"
        }
      ],
      "name": "isOperator",
      "outputs": [
        {
          "internalType": "bool",
          "name": "",
          "type": "bool"
        }
      ],
      "stateMutability": "view",
      "type": "function"
    },
    {
      "inputs": [
        {
          "internalType": "address",
          "name": "to",
          "type": "address"
        },
        {
          "internalType": "externalEuint64",
          "name": "amount",
          "type": "bytes32"
        },
        {
          "internalType": "bytes",
          "name": "inputProof",
          "type": "bytes"
        }
      ],
      "name": "mint",
      "outputs": [],
      "stateMutability": "nonpayable",
      "type": "function"
    },
    {
      "inputs": [],
      "name": "name",
      "outputs": [
        {
          "internalType": "string",
          "name": "",
          "type": "string"
        }
      ],
      "stateMutability": "view",
      "type": "function"
    },
    {
      "inputs": [
        {
          "internalType": "address",
          "name": "",
          "type": "address"
        },
        {
          "internalType": "address",
          "name": "from",
          "type": "address"
        },
        {
          "internalType": "uint256",
          "name": "amount",
          "type": "uint256"
        },
        {
          "internalType": "bytes",
          "name": "data",
          "type": "bytes"
        }
      ],
      "name": "onTransferReceived",
      "outputs": [
        {
          "internalType": "bytes4",
          "name": "",
          "type": "bytes4"
        }
      ],
      "stateMutability": "nonpayable",
      "type": "function"
    },
    {
      "inputs": [],
      "name": "rate",
      "outputs": [
        {
          "internalType": "uint256",
          "name": "",
          "type": "uint256"
        }
      ],
      "stateMutability": "view",
      "type": "function"
    },
    {
      "inputs": [
        {
          "internalType": "euint64",
          "name": "encryptedAmount",
          "type": "bytes32"
        }
      ],
      "name": "requestDiscloseEncryptedAmount",
      "outputs": [],
      "stateMutability": "nonpayable",
      "type": "function"
    },
    {
      "inputs": [
        {
          "internalType": "address",
          "name": "operator",
          "type": "address"
        },
        {
          "internalType": "uint48",
          "name": "until",
          "type": "uint48"
        }
      ],
      "name": "setOperator",
      "outputs": [],
      "stateMutability": "nonpayable",
      "type": "function"
    },
    {
      "inputs": [
        {
          "internalType": "bytes4",
          "name": "interfaceId",
          "type": "bytes4"
        }
      ],
      "name": "supportsInterface",
      "outputs": [
        {
          "internalType": "bool",
          "name": "",
          "type": "bool"
        }
      ],
      "stateMutability": "view",
      "type": "function"
    },
    {
      "inputs": [],
      "name": "symbol",
      "outputs": [
        {
          "internalType": "string",
          "name": "",
          "type": "string"
        }
      ],
      "stateMutability": "view",
      "type": "function"
    },
    {
      "inputs": [
        {
          "internalType": "address",
          "name": "from",
          "type": "address"
        },
        {
          "internalType": "address",
          "name": "to",
          "type": "address"
        },
        {
          "internalType": "externalEuint64",
          "name": "encryptedValue",
          "type": "bytes32"
        },
        {
          "internalType": "bytes",
          "name": "inputProof",
          "type": "bytes"
        },
        {
          "internalType": "uint256",
          "name": "validAfter",
          "type": "uint256"
        },
        {
          "internalType": "uint256",
          "name": "validBefore",
          "type": "uint256"
        },
        {
          "internalType": "bytes32",
          "name": "nonce",
          "type": "bytes32"
        },
        {
          "internalType": "bytes",
          "name": "signature",
          "type": "bytes"
        }
      ],
      "name": "transferWithAuthorization",
      "outputs": [
        {
          "internalType": "euint64",
          "name": "transferred",
          "type": "bytes32"
        }
      ],
      "stateMutability": "nonpayable",
      "type": "function"
    },
    {
      "inputs": [],
      "name": "underlying",
      "outputs": [
        {
          "internalType": "contract IERC20",
          "name": "",
          "type": "address"
        }
      ],
      "stateMutability": "view",
      "type": "function"
    },
    {
      "inputs": [
        {
          "internalType": "address",
          "name": "from",
          "type": "address"
        },
        {
          "internalType": "address",
          "name": "to",
          "type": "address"
        },
        {
          "internalType": "externalEuint64",
          "name": "encryptedAmount",
          "type": "bytes32"
        },
        {
          "internalType": "bytes",
          "name": "inputProof",
          "type": "bytes"
        }
      ],
      "name": "unwrap",
      "outputs": [],
      "stateMutability": "nonpayable",
      "type": "function"
    },
    {
      "inputs": [
        {
          "internalType": "address",
          "name": "from",
          "type": "address"
        },
        {
          "internalType": "address",
          "name": "to",
          "type": "address"
        },
        {
          "internalType": "euint64",
          "name": "amount",
          "type": "bytes32"
        }
      ],
      "name": "unwrap",
      "outputs": [],
      "stateMutability": "nonpayable",
      "type": "function"
    },
    {
      "inputs": [
        {
          "internalType": "address",
          "name": "newFacilitator",
          "type": "address"
        }
      ],
      "name": "updateFacilitator",
      "outputs": [],
      "stateMutability": "nonpayable",
      "type": "function"
    },
    {
      "inputs": [
        {
          "internalType": "address",
          "name": "to",
          "type": "address"
        },
        {
          "internalType": "uint256",
          "name": "amount",
          "type": "uint256"
        }
      ],
      "name": "wrap",
      "outputs": [],
      "stateMutability": "nonpayable",
      "type": "function"
    }
  ],
  "bytecode": "0x6101c0604052348015610010575f5ffd5b50604051613da5380380613da583398101604081905261002f916105c1565b6040805180820190915260018152603160f81b602082015285908282878761005d6100586101c0565b61032f565b600361006984826106fc565b50600461007683826106fc565b50600561008382826106fc565b5050506001600160a01b038216608052505f61009e826103db565b9050600660ff82168110156100d15760ff811660a0526100be81836107ca565b6100c990600a6108c6565b60c0526100de565b60ff821660a052600160c0525b506100ee91508390506007610498565b610180526100fd816008610498565b6101a05281516020808401919091206101405281519082012061016052466101005261018c6101405161016051604080517f8b73c3c69bb8fe3d512ecc4cf759cc79239f7b179b0ffacaa9a75d522b39400f60208201529081019290925260608201524660808201523060a08201525f9060c00160405160208183030381529060405280519060200120905090565b60e0525050306101205250600a80546001600160a01b0319166001600160a01b039290921691909117905550610969915050565b604080516060810182525f808252602082018190529181019190915246600103610219575060408051606080820183525f8083526020808401829052928401819052835191820184528082529181018290529182015290565b4662aa36a703610298575060408051606080820183525f8083526020808401829052928401528251908101835273f0ffdc93b7e186bc2f8cb3daa75d86d1930a433d81527392c920834ec8941d2c77d188936e1f7a6f49c1279181019190915273be0e383937d564d7ff0bc3b46c51f0bf8d5c311a9181019190915290565b46617a6903610316575060408051606080820183525f808352602080840182905292840152825190810183527350157cffd6bbfa2dece204a89ec419c23ef5755d815273e3a9105a3a932253a70f126eb1e3b589c643dd249181019190915273901f8942346f7ab3a01f6d7613119bca447bb0309181019190915290565b6040516373cac13b60e01b815260040160405180910390fd5b80517f9e7b61f58c47dc699ac88507c4f5bb9f121c03808c5676a8078fe583e464970080546001600160a01b03199081166001600160a01b039384161790915560208301517f9e7b61f58c47dc699ac88507c4f5bb9f121c03808c5676a8078fe583e46497018054831691841691909117905560408301517f9e7b61f58c47dc699ac88507c4f5bb9f121c03808c5676a8078fe583e46497028054909216921691909117905550565b50565b60408051600481526024810182526020810180516001600160e01b031663313ce56760e01b17905290515f91829182916001600160a01b0386169161042091906108db565b5f60405180830381855afa9150503d805f8114610458576040519150601f19603f3d011682016040523d82523d5f602084013e61045d565b606091505b5091509150818015610470575080516020145b15610491578080602001905181019061048991906108f1565b949350505050565b6012610489565b5f6020835110156104b3576104ac836104ca565b90506104c4565b816104be84826106fc565b5060ff90505b92915050565b5f5f829050601f815111156104fd578260405163305a27a960e01b81526004016104f49190610911565b60405180910390fd5b805161050882610946565b179392505050565b634e487b7160e01b5f52604160045260245ffd5b5f82601f830112610533575f5ffd5b81516001600160401b0381111561054c5761054c610510565b604051601f8201601f19908116603f011681016001600160401b038111828210171561057a5761057a610510565b604052818152838201602001851015610591575f5ffd5b8160208501602083015e5f918101602001919091529392505050565b6001600160a01b03811681146103d8575f5ffd5b5f5f5f5f5f60a086880312156105d5575f5ffd5b85516001600160401b038111156105ea575f5ffd5b6105f688828901610524565b602088015190965090506001600160401b03811115610613575f5ffd5b61061f88828901610524565b604088015190955090506001600160401b0381111561063c575f5ffd5b61064888828901610524565b9350506060860151610659816105ad565b608087015190925061066a816105ad565b809150509295509295909350565b600181811c9082168061068c57607f821691505b6020821081036106aa57634e487b7160e01b5f52602260045260245ffd5b50919050565b601f8211156106f757805f5260205f20601f840160051c810160208510156106d55750805b601f840160051c820191505b818110156106f4575f81556001016106e1565b50505b505050565b81516001600160401b0381111561071557610715610510565b610729816107238454610678565b846106b0565b6020601f82116001811461075b575f83156107445750848201515b5f19600385901b1c1916600184901b1784556106f4565b5f84815260208120601f198516915b8281101561078a578785015182556020948501946001909201910161076a565b50848210156107a757868401515f19600387901b60f8161c191681555b50505050600190811b01905550565b634e487b7160e01b5f52601160045260245ffd5b60ff82811682821603908111156104c4576104c46107b6565b6001815b600184111561081e57808504811115610802576108026107b6565b600184161561081057908102905b60019390931c9280026107e7565b935093915050565b5f82610834575060016104c4565b8161084057505f6104c4565b816001811461085657600281146108605761087c565b60019150506104c4565b60ff841115610871576108716107b6565b50506001821b6104c4565b5060208310610133831016604e8410600b841016171561089f575081810a6104c4565b6108ab5f1984846107e3565b805f19048211156108be576108be6107b6565b029392505050565b5f6108d460ff841683610826565b9392505050565b5f82518060208501845e5f920191825250919050565b5f60208284031215610901575f5ffd5b815160ff811681146108d4575f5ffd5b602081525f82518060208401528060208501604085015e5f604082850101526040601f19601f83011684010191505092915050565b805160208083015191908110156106aa575f1960209190910360031b1b16919050565b60805160a05160c05160e05161010051610120516101405161016051610180516101a05161338e610a175f395f61173a01525f61170d01525f6123a201525f61237a01525f6122d501525f6122ff01525f61232901525f81816102920152818161094a01528181610b3e01528181610b7901528181610db80152610dfb01525f6102da01525f81816103970152818161092501528181610ac401528181610bab0152610d92015261338e5ff3fe608060405234801561000f575f5ffd5b506004361061024f575f3560e01c8063a0cc6a681161013d578063d747d608116100b8578063e8a3d48511610088578063e94a01021161006e578063e94a010214610589578063eb3155b5146105b6578063fa9b7018146105c9575f5ffd5b8063e8a3d4851461056e578063e8c15fd414610576575f5ffd5b8063d747d60814610522578063d806180614610535578063de64211914610548578063e064b9bb1461055b575f5ffd5b8063b6483bab1161010d578063c7b8a75e116100f3578063c7b8a75e146104e9578063cd59ae1f146104fc578063d4febb961461050f575f5ffd5b8063b6483bab146104c3578063bf376c7a146104d6575f5ffd5b8063a0cc6a6814610439578063b1af281e14610460578063b2f722cf14610473578063b6363cf2146104b0575f5ffd5b80635bb67a05116101cd5780637797cee41161019d57806388a7ca5c1161018357806388a7ca5c146103fd5780638927b0301461042957806395d89b4114610431575f5ffd5b80637797cee4146103cf57806384b0196e146103e2575f5ffd5b80635bb67a051461035a5780635bebed7e1461036f5780635bf4ef06146103825780636f307dc314610395575f5ffd5b8063313ce5671161022257806334c457431161020857806334c457431461032c578063537d3c501461033f5780635409522714610352575f5ffd5b8063313ce567146102d3578063344ff10114610304575f5ffd5b806301ffc9a71461025357806306fdde031461027b5780632c4e722e146102905780632fb74e62146102c0575b5f5ffd5b610266610261366004612a49565b6105ec565b60405190151581526020015b60405180910390f35b610283610622565b6040516102729190612a9e565b7f00000000000000000000000000000000000000000000000000000000000000005b604051908152602001610272565b6102b26102ce366004612b09565b6106b2565b60405160ff7f0000000000000000000000000000000000000000000000000000000000000000168152602001610272565b6102b2610312366004612b5f565b6001600160a01b03165f9081526020819052604090205490565b6102b261033a366004612b78565b610705565b6102b261034d366004612b09565b6107ae565b6002546102b2565b61036d610368366004612c11565b610810565b005b6102b261037d366004612c5d565b6109d4565b61036d610390366004612c85565b610a26565b7f00000000000000000000000000000000000000000000000000000000000000005b6040516001600160a01b039091168152602001610272565b600a546103b7906001600160a01b031681565b6103ea610a76565b6040516102729796959493929190612cef565b61041061040b366004612c85565b610ab8565b6040516001600160e01b03199091168152602001610272565b6102b2610be5565b610283610bf3565b6102b27f750448e73ccc9e9cb51bce713f3f433808ba0eb333601a192b08b68bdb81830a81565b61036d61046e366004612c11565b610c02565b61036d610481366004612b5f565b600a805473ffffffffffffffffffffffffffffffffffffffff19166001600160a01b0392909216919091179055565b6102666104be366004612d85565b610cf7565b61036d6104d1366004612e4c565b610d49565b61036d6104e4366004612c5d565b610d8d565b6102b26104f7366004612c85565b610e25565b6102b261050a366004612e9f565b610ec8565b61036d61051d366004612f49565b61117d565b61036d610530366004612e4c565b61118c565b61036d610543366004612f88565b6111a5565b6102b2610556366004612f9f565b61121d565b6102b2610569366004612c85565b611279565b6102836112fe565b61036d610584366004613028565b61130d565b610266610597366004612c5d565b600960209081525f928352604080842090915290825290205460ff1681565b6102b26105c4366004613028565b611357565b6105d36298968081565b60405167ffffffffffffffff9091168152602001610272565b5f6001600160e01b031982166312563ca960e21b148061061c57506301ffc9a760e01b6001600160e01b03198316145b92915050565b60606003805461063190613062565b80601f016020809104026020016040519081016040528092919081815260200182805461065d90613062565b80156106a85780601f1061067f576101008083540402835291602001916106a8565b820191905f5260205f20905b81548152906001019060200180831161068b57829003601f168201915b5050505050905090565b5f6106fc33866106f78787878080601f0160208091040260200160405190810160405280939291908181526020018383808284375f920191909152506113f692505050565b611403565b95945050505050565b5f6107108833610cf7565b8833909161074957604051630f3e596760e31b81526001600160a01b039283166004820152911660248201526044015b60405180910390fd5b5050610796888861078f8989898080601f0160208091040260200160405190810160405280939291908181526020018383808284375f920191909152506113f692505050565b8686611481565b90506107a281336114d8565b50979650505050505050565b5f6107b984336114ea565b843390916107ec576040516367cfe80560e01b815260048101929092526001600160a01b03166024820152604401610740565b50506107fb3386868686611481565b905061080781336114d8565b50949350505050565b5f848152600660205260409020546001600160a01b03168481610849576040516368b187c760e11b815260040161074091815260200190565b505f85815260066020526040808220805473ffffffffffffffffffffffffffffffffffffffff19169055805160018082528183019092529081602001602082028036833701905050905085815f815181106108a6576108a661309a565b6020026020010181815250505f856040516020016108d4919067ffffffffffffffff91909116815260200190565b60408051601f198184030181526020601f8801819004810284018101909252868352925061092091849184919089908990819084018382808284375f920191909152506114f592505050565b61097e7f0000000000000000000000000000000000000000000000000000000000000000846109797f000000000000000000000000000000000000000000000000000000000000000067ffffffffffffffff8b166130c2565b611560565b6040805188815267ffffffffffffffff881660208201526001600160a01b038516917f2d4edf3c2943002120f53dab3f8940043f34799f4a92ab90f2f81f7dd004a49e910160405180910390a250505050505050565b5f6109df82336114ea565b82339091610a12576040516367cfe80560e01b815260048101929092526001600160a01b03166024820152604401610740565b5050610a1f338484611403565b9392505050565b610a6f8585610a6a8686868080601f0160208091040260200160405190810160405280939291908181526020018383808284375f920191909152506113f692505050565b6115d4565b5050505050565b5f6060805f5f5f6060610a87611706565b610a8f611733565b604080515f80825260208201909252600f60f81b9b939a50919850469750309650945092509050565b5f336001600160a01b037f0000000000000000000000000000000000000000000000000000000000000000168114610b0f5760405163782c6ffd60e01b81526001600160a01b039091166004820152602401610740565b505f60148310610b2b57610b2383856130d9565b60601c610b2d565b855b9050610b7281610b6d610b68610b637f00000000000000000000000000000000000000000000000000000000000000008a61313a565b611760565b61179a565b6117b0565b505f610b9e7f00000000000000000000000000000000000000000000000000000000000000008761314d565b90508015610bd157610bd17f00000000000000000000000000000000000000000000000000000000000000008883611560565b50632229f29760e21b979650505050505050565b5f610bee6117f1565b905090565b60606004805461063190613062565b6040805160018082528183019092525f916020808301908036833701905050905084815f81518110610c3657610c3661309a565b6020026020010181815250505f84604051602001610c64919067ffffffffffffffff91909116815260200190565b60408051601f198184030181526020601f87018190048102840181019092528583529250610cb091849184919088908890819084018382808284375f920191909152506114f592505050565b60405167ffffffffffffffff8616815286907f83bbbc07896439e5d950a6cead04cbc676180af7a61cecf43f5296475057f5719060200160405180910390a2505050505050565b5f816001600160a01b0316836001600160a01b03161480610a1f5750506001600160a01b039182165f90815260016020908152604080832093909416825291909152205465ffffffffffff1642111590565b5f610d566298968061179a565b90505f610d6384846113f6565b9050610d79610d728284611825565b8284611853565b9050610d8585826117b0565b505050505050565b610dec7f00000000000000000000000000000000000000000000000000000000000000003330610ddd7f00000000000000000000000000000000000000000000000000000000000000008661314d565b610de79086613160565b611892565b610e2082610b6d610b68610b637f00000000000000000000000000000000000000000000000000000000000000008661313a565b505050565b5f610e3084336114ea565b84339091610e63576040516367cfe80560e01b815260048101929092526001600160a01b03166024820152604401610740565b5050610e6f8633610cf7565b86339091610ea357604051630f3e596760e31b81526001600160a01b03928316600482015291166024820152604401610740565b5050610eb28686868686611481565b9050610ebe81336114d8565b5095945050505050565b5f844211610f185760405162461bcd60e51b815260206004820152601b60248201527f417574686f72697a6174696f6e206e6f74207965742076616c696400000000006044820152606401610740565b834210610f675760405162461bcd60e51b815260206004820152601560248201527f417574686f72697a6174696f6e206578706972656400000000000000000000006044820152606401610740565b6001600160a01b0389165f90815260096020908152604080832086845290915290205460ff1615610fda5760405162461bcd60e51b815260206004820152601a60248201527f417574686f72697a6174696f6e20616c726561647920757365640000000000006044820152606401610740565b5f610fe588886113f6565b604080517f750448e73ccc9e9cb51bce713f3f433808ba0eb333601a192b08b68bdb81830a6020808301919091526001600160a01b038e8116838501528d166060830152608082018c905260a082018a905260c0820189905260e080830189905283518084039091018152610100909201909252805191012090915088905f61106d826118cb565b90506001600160a01b038d1661108382886118f7565b6001600160a01b0316146110d95760405162461bcd60e51b815260206004820152601160248201527f496e76616c6964207369676e61747572650000000000000000000000000000006044820152606401610740565b6110e48d8d86611403565b600a549095506110fe9086906001600160a01b031661191f565b506001600160a01b03808e165f8181526009602090815260408083208c845290915290819020805460ff191660011790555189928f1691907f81c0ea162ef53703b628d1236d33a3a1c0888e51c81d237368b0e5cd45690b7690611165908a815260200190565b60405180910390a45050505098975050505050505050565b61118833838361192a565b5050565b61119f8361119a84846113f6565b6119a1565b50505050565b6111af81336114ea565b813390916111e2576040516367cfe80560e01b815260048101929092526001600160a01b03166024820152604401610740565b50506111ed816119e2565b50604051339082907f189c3bfae2e5ce7726b29d57bb6ed0f1a7ebcd153a863ff5ecb6cd998064c98c905f90a350565b5f611262338861078f8989898080601f0160208091040260200160405190810160405280939291908181526020018383808284375f920191909152506113f692505050565b905061126e81336114d8565b509695505050505050565b5f6112848633610cf7565b863390916112b857604051630f3e596760e31b81526001600160a01b03928316600482015291166024820152604401610740565b5050610eb286866106f78787878080601f0160208091040260200160405190810160405280939291908181526020018383808284375f920191909152506113f692505050565b60606005805461063190613062565b61131781336114ea565b8133909161134a576040516367cfe80560e01b815260048101929092526001600160a01b03166024820152604401610740565b5050610e208383836115d4565b5f61136282336114ea565b82339091611395576040516367cfe80560e01b815260048101929092526001600160a01b03166024820152604401610740565b50506113a18433610cf7565b843390916113d557604051630f3e596760e31b81526001600160a01b03928316600482015291166024820152604401610740565b50506113e2848484611403565b90506113ee81336114d8565b509392505050565b5f610a1f838360056119ec565b5f806001600160a01b0385166114385760405163ee457ebf60e01b81526001600160a01b039091166004820152602401610740565b505f6001600160a01b03841661146d57604051638d51880160e01b81526001600160a01b039091166004820152602401610740565b50611479848484611af9565b949350505050565b5f5f61148e878787611403565b90505f61149f338989858989611cd6565b90505f6114bf888a6114ba856114b45f61179a565b88611853565b611af9565b90506114cb8382611dda565b9998505050505050505050565b5f6114e38383611e08565b5090919050565b5f610a1f8383611e7c565b5f611501848484611f00565b9050806115215760405163cf6c44e960e01b815260040160405180910390fd5b7fc6366bab028b8d033cb362cfd1f2f3457ef4e92fc738b6788b90d5a7846367a084846040516115529291906131ad565b60405180910390a150505050565b6040516001600160a01b03838116602483015260448201839052610e2091859182169063a9059cbb906064015b604051602081830303815290604052915060e01b6020820180517bffffffffffffffffffffffffffffffffffffffffffffffffffffffff8381831617835250505050611fa4565b816001600160a01b03811661160857604051638d51880160e01b81526001600160a01b039091166004820152602401610740565b506001600160a01b03831633148061162557506116258333610cf7565b8333909161165957604051630f3e596760e31b81526001600160a01b03928316600482015291166024820152604401610740565b50505f61166684836119a1565b9050611671816119e2565b505f818152600660205260409020546001600160a01b031615611696576116966131d1565b5f81815260066020908152604091829020805473ffffffffffffffffffffffffffffffffffffffff19166001600160a01b03871690811790915591518381527f77d02d353c5629272875d11f1b34ec4c65d7430b075575b78cd2502034c469ee910160405180910390a250505050565b6060610bee7f00000000000000000000000000000000000000000000000000000000000000006007612010565b6060610bee7f00000000000000000000000000000000000000000000000000000000000000006008612010565b5f67ffffffffffffffff82111561179657604080516306dfcc6560e41b8152600481019190915260248101839052604401610740565b5090565b5f61061c8267ffffffffffffffff1660056120b9565b5f806001600160a01b0384166117e557604051638d51880160e01b81526001600160a01b039091166004820152602401610740565b50610a1f5f8484611af9565b5f466001036118005750600190565b4662aa36a703611811575061271190565b46617a690361182057505f1990565b505f90565b5f82611837576118345f61179a565b92505b81611848576118455f61179a565b91505b610a1f83835f61215b565b5f83611865576118625f612221565b93505b82611876576118735f61179a565b92505b81611887576118845f61179a565b91505b61147984848461223c565b6040516001600160a01b03848116602483015283811660448301526064820183905261119f9186918216906323b872dd9060840161158d565b5f61061c6118d76122c9565b8360405161190160f01b8152600281019290925260228201526042902090565b5f5f5f5f61190586866123f2565b925092509250611915828261243b565b5090949350505050565b5f6114e383836124f3565b6001600160a01b038381165f81815260016020908152604080832094871680845294825291829020805465ffffffffffff191665ffffffffffff871690811790915591519182527f921a218a75d18e8ec5704851e6b234a85725b21a2521ce889622c35dedc1fa12910160405180910390a3505050565b5f806001600160a01b0384166119d65760405163ee457ebf60e01b81526001600160a01b039091166004820152602401610740565b50610a1f835f84611af9565b5f61179682612539565b7f9e7b61f58c47dc699ac88507c4f5bb9f121c03808c5676a8078fe583e46497015460405163045fc19560e11b81525f915f5160206133395f395f51905f52916001600160a01b03909116906308bf832a90611a52908890339089908990600401613219565b6020604051808303815f875af1158015611a6e573d5f5f3e3d5ffd5b505050506040513d601f19601f82011682018060405250810190611a92919061324f565b8154604051630f8e573b60e21b8152600481018390523360248201529193506001600160a01b031690633e395cec906044015f604051808303815f87803b158015611adb575f5ffd5b505af1158015611aed573d5f5f3e3d5ffd5b50505050509392505050565b5f80806001600160a01b038616611b2f57611b16600254856125b7565b9092509050611b2481612601565b506002819055611bb3565b6001600160a01b0386165f908152602081905260409020548681611b72576040516317fe473760e21b81526001600160a01b039091166004820152602401610740565b50611b7d818661260c565b9093509150611b8b82612601565b50611b96828861191f565b50506001600160a01b0386165f9081526020819052604090208190555b611bc68285611bc15f61179a565b611853565b92506001600160a01b038516611bf857611be260025484611dda565b9050611bed81612601565b506002819055611c4c565b6001600160a01b0385165f90815260208190526040902054611c1a9084612671565b9050611c2581612601565b50611c30818661191f565b506001600160a01b0385165f9081526020819052604090208190555b6001600160a01b03861615611c6757611c65838761191f565b505b6001600160a01b03851615611c8257611c80838661191f565b505b611c8b83612601565b5082856001600160a01b0316876001600160a01b03167f67500e8d0ed826d2194f514dd0d8124f35648ab6e3fb5e6ed867134cffe661e960405160405180910390a450509392505050565b5f6001600160a01b0385163b15611dc3576040516346083bfd60e01b81526001600160a01b038616906346083bfd90611d1b908a908a90899089908990600401613266565b6020604051808303815f875af1925050508015611d55575060408051601f3d908101601f19168201909252611d529181019061324f565b60015b611dbc573d808015611d82576040519150601f19603f3d011682016040523d82523d5f602084013e611d87565b606091505b5080515f03611db457604051638d51880160e01b81526001600160a01b0387166004820152602401610740565b805181602001fd5b9050611dd0565b611dcd6001612221565b90505b9695505050505050565b5f82611dec57611de95f61179a565b92505b81611dfd57611dfa5f61179a565b91505b610a1f83835f61269f565b5f5160206133395f395f51905f528054604051630f8e573b60e21b8152600481018590526001600160a01b03848116602483015290911690633e395cec906044015b5f604051808303815f87803b158015611e61575f5ffd5b505af1158015611e73573d5f5f3e3d5ffd5b50505050505050565b5f805f5160206133395f395f51905f5280546040516382027b6d60e01b8152600481018790526001600160a01b0386811660248301529293509116906382027b6d90604401602060405180830381865afa158015611edc573d5f5f3e3d5ffd5b505050506040513d601f19601f8201168201806040525081019061147991906132bb565b7f9e7b61f58c47dc699ac88507c4f5bb9f121c03808c5676a8078fe583e4649702546040516378542ead60e01b81525f915f5160206133395f395f51905f52916001600160a01b03909116906378542ead90611f64908890889088906004016132da565b6020604051808303815f875af1158015611f80573d5f5f3e3d5ffd5b505050506040513d601f19601f820116820180604052508101906106fc91906132bb565b5f5f60205f8451602086015f885af180611fc3576040513d5f823e3d81fd5b50505f513d91508115611fda578060011415611fe7565b6001600160a01b0384163b155b1561119f57604051635274afe760e01b81526001600160a01b0385166004820152602401610740565b606060ff831461202a5761202383612729565b905061061c565b81805461203690613062565b80601f016020809104026020016040519081016040528092919081815260200182805461206290613062565b80156120ad5780601f10612084576101008083540402835291602001916120ad565b820191905f5260205f20905b81548152906001019060200180831161209057829003601f168201915b5050505050905061061c565b7f9e7b61f58c47dc699ac88507c4f5bb9f121c03808c5676a8078fe583e464970154604051639cd07acb60e01b81525f915f5160206133395f395f51905f52916001600160a01b0390911690639cd07acb9061211b9087908790600401613312565b6020604051808303815f875af1158015612137573d5f5f3e3d5ffd5b505050506040513d601f19601f82011682018060405250810190611479919061324f565b5f5f821561216e5750600160f81b612171565b505f5b7f9e7b61f58c47dc699ac88507c4f5bb9f121c03808c5676a8078fe583e464970154604051637210768160e01b815260048101879052602481018690526001600160f81b0319831660448201525f5160206133395f395f51905f52916001600160a01b0316906372107681906064015b6020604051808303815f875af11580156121fd573d5f5f3e3d5ffd5b505050506040513d601f19601f82011682018060405250810190611dd0919061324f565b5f61061c82612230575f612233565b60015b60ff165f6120b9565b5f805f5160206133395f395f51905f526001810154604051637702dcff60e01b81526004810188905260248101879052604481018690529192506001600160a01b031690637702dcff906064016020604051808303815f875af11580156122a5573d5f5f3e3d5ffd5b505050506040513d601f19601f820116820180604052508101906106fc919061324f565b5f306001600160a01b037f00000000000000000000000000000000000000000000000000000000000000001614801561232157507f000000000000000000000000000000000000000000000000000000000000000046145b1561234b57507f000000000000000000000000000000000000000000000000000000000000000090565b610bee604080517f8b73c3c69bb8fe3d512ecc4cf759cc79239f7b179b0ffacaa9a75d522b39400f60208201527f0000000000000000000000000000000000000000000000000000000000000000918101919091527f000000000000000000000000000000000000000000000000000000000000000060608201524660808201523060a08201525f9060c00160405160208183030381529060405280519060200120905090565b5f5f5f8351604103612429576020840151604085015160608601515f1a61241b88828585612766565b955095509550505050612434565b505081515f91506002905b9250925092565b5f82600381111561244e5761244e6131e5565b03612457575050565b600182600381111561246b5761246b6131e5565b036124895760405163f645eedf60e01b815260040160405180910390fd5b600282600381111561249d5761249d6131e5565b036124be5760405163fce698f760e01b815260048101829052602401610740565b60038260038111156124d2576124d26131e5565b03611188576040516335e2f38360e21b815260048101829052602401610740565b5f5160206133395f395f51905f528054604051635ca4b5b160e11b8152600481018590526001600160a01b0384811660248301529091169063b9496b6290604401611e4a565b6040805160018082528183019092525f5160206133395f395f51905f52915f91906020808301908036833701905050905082815f8151811061257d5761257d61309a565b60209081029190910101528154604051637d6e912360e11b81526001600160a01b039091169063fadd224690611e4a908490600401613326565b5f80836125d2576125c86001612221565b83915091506125fa565b5f6125dd8585612671565b90506125e9818661282e565b92506125f6838287611853565b9150505b9250929050565b5f61179682306124f3565b5f8083612648578261262c576126226001612221565b84915091506125fa565b612636835f61285c565b61263f5f61179a565b915091506125fa565b612652848461282e565b9150612668826126628686611dda565b86611853565b90509250929050565b5f82612683576126805f61179a565b92505b81612694576126915f61179a565b91505b610a1f83835f612884565b5f5f82156126b25750600160f81b6126b5565b505f5b7f9e7b61f58c47dc699ac88507c4f5bb9f121c03808c5676a8078fe583e4649701546040516303056db360e31b815260048101879052602481018690526001600160f81b0319831660448201525f5160206133395f395f51905f52916001600160a01b03169063182b6d98906064016121e1565b60605f6127358361290e565b6040805160208082528183019092529192505f91906020820181803683375050509182525060208101929092525090565b5f80807f7fffffffffffffffffffffffffffffff5d576e7357a4501ddfe92f46681b20a084111561279f57505f91506003905082612824565b604080515f808252602082018084528a905260ff891692820192909252606081018790526080810186905260019060a0016020604051602081039080840390855afa1580156127f0573d5f5f3e3d5ffd5b5050604051601f1901519150506001600160a01b03811661281b57505f925060019150829050612824565b92505f91508190505b9450945094915050565b5f826128405761283d5f61179a565b92505b816128515761284e5f61179a565b91505b610a1f83835f612935565b5f8261286e5761286b5f61179a565b92505b610a1f8367ffffffffffffffff841660016129bf565b5f5f82156128975750600160f81b61289a565b505f5b7f9e7b61f58c47dc699ac88507c4f5bb9f121c03808c5676a8078fe583e46497015460405163022f65e760e31b815260048101879052602481018690526001600160f81b0319831660448201525f5160206133395f395f51905f52916001600160a01b03169063117b2f38906064016121e1565b5f60ff8216601f81111561061c57604051632cd44ac360e21b815260040160405180910390fd5b5f5f82156129485750600160f81b61294b565b505f5b7f9e7b61f58c47dc699ac88507c4f5bb9f121c03808c5676a8078fe583e464970154604051631391547f60e01b815260048101879052602481018690526001600160f81b0319831660448201525f5160206133395f395f51905f52916001600160a01b031690631391547f906064016121e1565b5f5f82156129d25750600160f81b6129d5565b505f5b7f9e7b61f58c47dc699ac88507c4f5bb9f121c03808c5676a8078fe583e46497015460405163f77f3f1d60e01b815260048101879052602481018690526001600160f81b0319831660448201525f5160206133395f395f51905f52916001600160a01b03169063f77f3f1d906064016121e1565b5f60208284031215612a59575f5ffd5b81356001600160e01b031981168114610a1f575f5ffd5b5f81518084528060208401602086015e5f602082860101526020601f19601f83011685010191505092915050565b602081525f610a1f6020830184612a70565b80356001600160a01b0381168114612ac6575f5ffd5b919050565b5f5f83601f840112612adb575f5ffd5b50813567ffffffffffffffff811115612af2575f5ffd5b6020830191508360208285010111156125fa575f5ffd5b5f5f5f5f60608587031215612b1c575f5ffd5b612b2585612ab0565b935060208501359250604085013567ffffffffffffffff811115612b47575f5ffd5b612b5387828801612acb565b95989497509550505050565b5f60208284031215612b6f575f5ffd5b610a1f82612ab0565b5f5f5f5f5f5f5f60a0888a031215612b8e575f5ffd5b612b9788612ab0565b9650612ba560208901612ab0565b955060408801359450606088013567ffffffffffffffff811115612bc7575f5ffd5b612bd38a828b01612acb565b909550935050608088013567ffffffffffffffff811115612bf2575f5ffd5b612bfe8a828b01612acb565b989b979a50959850939692959293505050565b5f5f5f5f60608587031215612c24575f5ffd5b84359350602085013567ffffffffffffffff81168114612c42575f5ffd5b9250604085013567ffffffffffffffff811115612b47575f5ffd5b5f5f60408385031215612c6e575f5ffd5b612c7783612ab0565b946020939093013593505050565b5f5f5f5f5f60808688031215612c99575f5ffd5b612ca286612ab0565b9450612cb060208701612ab0565b935060408601359250606086013567ffffffffffffffff811115612cd2575f5ffd5b612cde88828901612acb565b969995985093965092949392505050565b60ff60f81b8816815260e060208201525f612d0d60e0830189612a70565b8281036040840152612d1f8189612a70565b606084018890526001600160a01b038716608085015260a0840186905283810360c0850152845180825260208087019350909101905f5b81811015612d74578351835260209384019390920191600101612d56565b50909b9a5050505050505050505050565b5f5f60408385031215612d96575f5ffd5b612d9f83612ab0565b915061266860208401612ab0565b634e487b7160e01b5f52604160045260245ffd5b5f82601f830112612dd0575f5ffd5b813567ffffffffffffffff811115612dea57612dea612dad565b604051601f8201601f19908116603f0116810167ffffffffffffffff81118282101715612e1957612e19612dad565b604052818152838201602001851015612e30575f5ffd5b816020850160208301375f918101602001919091529392505050565b5f5f5f60608486031215612e5e575f5ffd5b612e6784612ab0565b925060208401359150604084013567ffffffffffffffff811115612e89575f5ffd5b612e9586828701612dc1565b9150509250925092565b5f5f5f5f5f5f5f5f610100898b031215612eb7575f5ffd5b612ec089612ab0565b9750612ece60208a01612ab0565b965060408901359550606089013567ffffffffffffffff811115612ef0575f5ffd5b612efc8b828c01612dc1565b9550506080890135935060a0890135925060c0890135915060e089013567ffffffffffffffff811115612f2d575f5ffd5b612f398b828c01612dc1565b9150509295985092959890939650565b5f5f60408385031215612f5a575f5ffd5b612f6383612ab0565b9150602083013565ffffffffffff81168114612f7d575f5ffd5b809150509250929050565b5f60208284031215612f98575f5ffd5b5035919050565b5f5f5f5f5f5f60808789031215612fb4575f5ffd5b612fbd87612ab0565b955060208701359450604087013567ffffffffffffffff811115612fdf575f5ffd5b612feb89828a01612acb565b909550935050606087013567ffffffffffffffff81111561300a575f5ffd5b61301689828a01612acb565b979a9699509497509295939492505050565b5f5f5f6060848603121561303a575f5ffd5b61304384612ab0565b925061305160208501612ab0565b929592945050506040919091013590565b600181811c9082168061307657607f821691505b60208210810361309457634e487b7160e01b5f52602260045260245ffd5b50919050565b634e487b7160e01b5f52603260045260245ffd5b634e487b7160e01b5f52601160045260245ffd5b808202811582820484141761061c5761061c6130ae565b80356bffffffffffffffffffffffff19811690601484101561311f576bffffffffffffffffffffffff196bffffffffffffffffffffffff198560140360031b1b82161691505b5092915050565b634e487b7160e01b5f52601260045260245ffd5b5f8261314857613148613126565b500490565b5f8261315b5761315b613126565b500690565b8181038181111561061c5761061c6130ae565b5f8151808452602084019350602083015f5b828110156131a3578151865260209586019590910190600101613185565b5093949350505050565b604081525f6131bf6040830185613173565b82810360208401526106fc8185612a70565b634e487b7160e01b5f52600160045260245ffd5b634e487b7160e01b5f52602160045260245ffd5b6054811061321557634e487b7160e01b5f52602160045260245ffd5b9052565b8481526001600160a01b0384166020820152608060408201525f6132406080830185612a70565b90506106fc60608301846131f9565b5f6020828403121561325f575f5ffd5b5051919050565b6001600160a01b03861681526001600160a01b038516602082015283604082015260806060820152816080820152818360a08301375f81830160a090810191909152601f909201601f19160101949350505050565b5f602082840312156132cb575f5ffd5b81518015158114610a1f575f5ffd5b606081525f6132ec6060830186613173565b82810360208401526132fe8186612a70565b90508281036040840152611dd08185612a70565b82815260408101610a1f60208301846131f9565b602081525f610a1f602083018461317356fe9e7b61f58c47dc699ac88507c4f5bb9f121c03808c5676a8078fe583e4649700a26469706673582212202de54e57e78974bd67ba85dc77f4e624b8f8dcbe57cd635842feff5ceb353fc264736f6c634300081c0033",
  "linkReferences": {},
  "deployedLinkReferences": {},
  "immutableReferences": {
    "42040": [
      {
        "length": 32,
        "start": 9001
      }
    ],
    "42042": [
      {
        "length": 32,
        "start": 8959
      }
    ],
    "42044": [
      {
        "length": 32,
        "start": 8917
      }
    ],
    "42046": [
      {
        "length": 32,
        "start": 9082
      }
    ],
    "42048": [
      {
        "length": 32,
        "start": 9122
      }
    ],
    "42051": [
      {
        "length": 32,
        "start": 5901
      }
    ],
    "42054": [
      {
        "length": 32,
        "start": 5946
      }
    ],
    "47662": [
      {
        "length": 32,
        "start": 919
      },
      {
        "length": 32,
        "start": 2341
      },
      {
        "length": 32,
        "start": 2756
      },
      {
        "length": 32,
        "start": 2987
      },
      {
        "length": 32,
        "start": 3474
      }
    ],
    "47664": [
      {
        "length": 32,
        "start": 730
      }
    ],
    "47666": [
      {
        "length": 32,
        "start": 658
      },
      {
        "length": 32,
        "start": 2378
      },
      {
        "length": 32,
        "start": 2878
      },
      {
        "length": 32,
        "start": 2937
      },
      {
        "length": 32,
        "start": 3512
      },
      {
        "length": 32,
        "start": 3579
      }
    ]
  },
  "inputSourceName": "project/contracts/cUSDX402.sol",
  "buildInfoId": "solc-0_8_28-4573bc636f4b41f10dcac87b814a768e729aaf0f"
}