{
  "_format": "hh3-artifact-1",
  "contractName": "ConfidentialUSD",
  "sourceName": "contracts/cUSD.sol",
  "abi": [
    {
      "inputs": [
        {
          "internalType": "string",
          "name": "name",
          "type": "string"
        },
        {
          "internalType": "string",
          "name": "symbol",
          "type": "string"
        },
        {
          "internalType": "string",
          "name": "uri",
          "type": "string"
        }
      ],
      "stateMutability": "nonpayable",
      "type": "constructor"
    },
    {
      "inputs": [
        {
          "internalType": "uint256",
          "name": "requestId",
          "type": "uint256"
        }
      ],
      "name": "ConfidentialFungibleTokenInvalidGatewayRequest",
      "type": "error"
    },
    {
      "inputs": [
        {
          "internalType": "address",
          "name": "receiver",
          "type": "address"
        }
      ],
      "name": "ConfidentialFungibleTokenInvalidReceiver",
      "type": "error"
    },
    {
      "inputs": [
        {
          "internalType": "address",
          "name": "sender",
          "type": "address"
        }
      ],
      "name": "ConfidentialFungibleTokenInvalidSender",
      "type": "error"
    },
    {
      "inputs": [
        {
          "internalType": "address",
          "name": "caller",
          "type": "address"
        }
      ],
      "name": "ConfidentialFungibleTokenUnauthorizedCaller",
      "type": "error"
    },
    {
      "inputs": [
        {
          "internalType": "address",
          "name": "holder",
          "type": "address"
        },
        {
          "internalType": "address",
          "name": "spender",
          "type": "address"
        }
      ],
      "name": "ConfidentialFungibleTokenUnauthorizedSpender",
      "type": "error"
    },
    {
      "inputs": [
        {
          "internalType": "euint64",
          "name": "amount",
          "type": "bytes32"
        },
        {
          "internalType": "address",
          "name": "user",
          "type": "address"
        }
      ],
      "name": "ConfidentialFungibleTokenUnauthorizedUseOfEncryptedAmount",
      "type": "error"
    },
    {
      "inputs": [
        {
          "internalType": "address",
          "name": "holder",
          "type": "address"
        }
      ],
      "name": "ConfidentialFungibleTokenZeroBalance",
      "type": "error"
    },
    {
      "inputs": [],
      "name": "HandlesAlreadySavedForRequestID",
      "type": "error"
    },
    {
      "inputs": [],
      "name": "InvalidKMSSignatures",
      "type": "error"
    },
    {
      "inputs": [],
      "name": "NoHandleFoundForRequestID",
      "type": "error"
    },
    {
      "inputs": [],
      "name": "UnsupportedHandleType",
      "type": "error"
    },
    {
      "anonymous": false,
      "inputs": [
        {
          "indexed": true,
          "internalType": "euint64",
          "name": "encryptedAmount",
          "type": "bytes32"
        },
        {
          "indexed": false,
          "internalType": "uint64",
          "name": "amount",
          "type": "uint64"
        }
      ],
      "name": "AmountDisclosed",
      "type": "event"
    },
    {
      "anonymous": false,
      "inputs": [
        {
          "indexed": true,
          "internalType": "address",
          "name": "from",
          "type": "address"
        },
        {
          "indexed": true,
          "internalType": "address",
          "name": "to",
          "type": "address"
        },
        {
          "indexed": true,
          "internalType": "euint64",
          "name": "amount",
          "type": "bytes32"
        }
      ],
      "name": "ConfidentialTransfer",
      "type": "event"
    },
    {
      "anonymous": false,
      "inputs": [
        {
          "indexed": true,
          "internalType": "uint256",
          "name": "requestID",
          "type": "uint256"
        }
      ],
      "name": "DecryptionFulfilled",
      "type": "event"
    },
    {
      "anonymous": false,
      "inputs": [
        {
          "indexed": true,
          "internalType": "address",
          "name": "holder",
          "type": "address"
        },
        {
          "indexed": true,
          "internalType": "address",
          "name": "operator",
          "type": "address"
        },
        {
          "indexed": false,
          "internalType": "uint48",
          "name": "until",
          "type": "uint48"
        }
      ],
      "name": "OperatorSet",
      "type": "event"
    },
    {
      "inputs": [],
      "name": "MAX_MINT_AMOUNT",
      "outputs": [
        {
          "internalType": "uint64",
          "name": "",
          "type": "uint64"
        }
      ],
      "stateMutability": "view",
      "type": "function"
    },
    {
      "inputs": [
        {
          "internalType": "address",
          "name": "account",
          "type": "address"
        }
      ],
      "name": "confidentialBalanceOf",
      "outputs": [
        {
          "internalType": "euint64",
          "name": "",
          "type": "bytes32"
        }
      ],
      "stateMutability": "view",
      "type": "function"
    },
    {
      "inputs": [],
      "name": "confidentialTotalSupply",
      "outputs": [
        {
          "internalType": "euint64",
          "name": "",
          "type": "bytes32"
        }
      ],
      "stateMutability": "view",
      "type": "function"
    },
    {
      "inputs": [
        {
          "internalType": "address",
          "name": "to",
          "type": "address"
        },
        {
          "internalType": "externalEuint64",
          "name": "encryptedAmount",
          "type": "bytes32"
        },
        {
          "internalType": "bytes",
          "name": "inputProof",
          "type": "bytes"
        }
      ],
      "name": "confidentialTransfer",
      "outputs": [
        {
          "internalType": "euint64",
          "name": "",
          "type": "bytes32"
        }
      ],
      "stateMutability": "nonpayable",
      "type": "function"
    },
    {
      "inputs": [
        {
          "internalType": "address",
          "name": "to",
          "type": "address"
        },
        {
          "internalType": "euint64",
          "name": "amount",
          "type": "bytes32"
        }
      ],
      "name": "confidentialTransfer",
      "outputs": [
        {
          "internalType": "euint64",
          "name": "",
          "type": "bytes32"
        }
      ],
      "stateMutability": "nonpayable",
      "type": "function"
    },
    {
      "inputs": [
        {
          "internalType": "address",
          "name": "to",
          "type": "address"
        },
        {
          "internalType": "euint64",
          "name": "amount",
          "type": "bytes32"
        },
        {
          "internalType": "bytes",
          "name": "data",
          "type": "bytes"
        }
      ],
      "name": "confidentialTransferAndCall",
      "outputs": [
        {
          "internalType": "euint64",
          "name": "transferred",
          "type": "bytes32"
        }
      ],
      "stateMutability": "nonpayable",
      "type": "function"
    },
    {
      "inputs": [
        {
          "internalType": "address",
          "name": "to",
          "type": "address"
        },
        {
          "internalType": "externalEuint64",
          "name": "encryptedAmount",
          "type": "bytes32"
        },
        {
          "internalType": "bytes",
          "name": "inputProof",
          "type": "bytes"
        },
        {
          "internalType": "bytes",
          "name": "data",
          "type": "bytes"
        }
      ],
      "name": "confidentialTransferAndCall",
      "outputs": [
        {
          "internalType": "euint64",
          "name": "transferred",
          "type": "bytes32"
        }
      ],
      "stateMutability": "nonpayable",
      "type": "function"
    },
    {
      "inputs": [
        {
          "internalType": "address",
          "name": "from",
          "type": "address"
        },
        {
          "internalType": "address",
          "name": "to",
          "type": "address"
        },
        {
          "internalType": "externalEuint64",
          "name": "encryptedAmount",
          "type": "bytes32"
        },
        {
          "internalType": "bytes",
          "name": "inputProof",
          "type": "bytes"
        }
      ],
      "name": "confidentialTransferFrom",
      "outputs": [
        {
          "internalType": "euint64",
          "name": "transferred",
          "type": "bytes32"
        }
      ],
      "stateMutability": "nonpayable",
      "type": "function"
    },
    {
      "inputs": [
        {
          "internalType": "address",
          "name": "from",
          "type": "address"
        },
        {
          "internalType": "address",
          "name": "to",
          "type": "address"
        },
        {
          "internalType": "euint64",
          "name": "amount",
          "type": "bytes32"
        }
      ],
      "name": "confidentialTransferFrom",
      "outputs": [
        {
          "internalType": "euint64",
          "name": "transferred",
          "type": "bytes32"
        }
      ],
      "stateMutability": "nonpayable",
      "type": "function"
    },
    {
      "inputs": [
        {
          "internalType": "address",
          "name": "from",
          "type": "address"
        },
        {
          "internalType": "address",
          "name": "to",
          "type": "address"
        },
        {
          "internalType": "externalEuint64",
          "name": "encryptedAmount",
          "type": "bytes32"
        },
        {
          "internalType": "bytes",
          "name": "inputProof",
          "type": "bytes"
        },
        {
          "internalType": "bytes",
          "name": "data",
          "type": "bytes"
        }
      ],
      "name": "confidentialTransferFromAndCall",
      "outputs": [
        {
          "internalType": "euint64",
          "name": "transferred",
          "type": "bytes32"
        }
      ],
      "stateMutability": "nonpayable",
      "type": "function"
    },
    {
      "inputs": [
        {
          "internalType": "address",
          "name": "from",
          "type": "address"
        },
        {
          "internalType": "address",
          "name": "to",
          "type": "address"
        },
        {
          "internalType": "euint64",
          "name": "amount",
          "type": "bytes32"
        },
        {
          "internalType": "bytes",
          "name": "data",
          "type": "bytes"
        }
      ],
      "name": "confidentialTransferFromAndCall",
      "outputs": [
        {
          "internalType": "euint64",
          "name": "transferred",
          "type": "bytes32"
        }
      ],
      "stateMutability": "nonpayable",
      "type": "function"
    },
    {
      "inputs": [],
      "name": "decimals",
      "outputs": [
        {
          "internalType": "uint8",
          "name": "",
          "type": "uint8"
        }
      ],
      "stateMutability": "view",
      "type": "function"
    },
    {
      "inputs": [
        {
          "internalType": "euint64",
          "name": "encryptedAmount",
          "type": "bytes32"
        }
      ],
      "name": "discloseEncryptedAmount",
      "outputs": [],
      "stateMutability": "nonpayable",
      "type": "function"
    },
    {
      "inputs": [
        {
          "internalType": "uint256",
          "name": "requestId",
          "type": "uint256"
        },
        {
          "internalType": "uint64",
          "name": "amount",
          "type": "uint64"
        },
        {
          "internalType": "bytes[]",
          "name": "signatures",
          "type": "bytes[]"
        }
      ],
      "name": "finalizeDiscloseEncryptedAmount",
      "outputs": [],
      "stateMutability": "nonpayable",
      "type": "function"
    },
    {
      "inputs": [
        {
          "internalType": "address",
          "name": "holder",
          "type": "address"
        },
        {
          "internalType": "address",
          "name": "spender",
          "type": "address"
        }
      ],
      "name": "isOperator",
      "outputs": [
        {
          "internalType": "bool",
          "name": "",
          "type": "bool"
        }
      ],
      "stateMutability": "view",
      "type": "function"
    },
    {
      "inputs": [
        {
          "internalType": "address",
          "name": "to",
          "type": "address"
        },
        {
          "internalType": "externalEuint64",
          "name": "amount",
          "type": "bytes32"
        },
        {
          "internalType": "bytes",
          "name": "inputProof",
          "type": "bytes"
        }
      ],
      "name": "mint",
      "outputs": [],
      "stateMutability": "nonpayable",
      "type": "function"
    },
    {
      "inputs": [],
      "name": "name",
      "outputs": [
        {
          "internalType": "string",
          "name": "",
          "type": "string"
        }
      ],
      "stateMutability": "view",
      "type": "function"
    },
    {
      "inputs": [
        {
          "internalType": "address",
          "name": "operator",
          "type": "address"
        },
        {
          "internalType": "uint48",
          "name": "until",
          "type": "uint48"
        }
      ],
      "name": "setOperator",
      "outputs": [],
      "stateMutability": "nonpayable",
      "type": "function"
    },
    {
      "inputs": [],
      "name": "symbol",
      "outputs": [
        {
          "internalType": "string",
          "name": "",
          "type": "string"
        }
      ],
      "stateMutability": "view",
      "type": "function"
    },
    {
      "inputs": [],
      "name": "tokenURI",
      "outputs": [
        {
          "internalType": "string",
          "name": "",
          "type": "string"
        }
      ],
      "stateMutability": "view",
      "type": "function"
    }
  ],
  "bytecode": "0x608060405234801561000f575f5ffd5b5060405161278d38038061278d83398101604081905261002e916102bf565b8282826101ab6100cf604080516080810182525f808252602082018190529181018290526060810191909152506040805160808101825273687820221192c5b662b25367f70076a37bc79b6c815273848b0066793bcc60346da1f49049357399b8d5956020820152731364cbbf2cdf5032c47d8226a6f6fbd2afcdacac9181019190915273bc91f3dad1a5f19f8390c400196e58073b6a0bc4606082015290565b80517fed8d60e34876f751cc8b014c560745351147d9de11b9347c854e881b128ea60080546001600160a01b03199081166001600160a01b039384161790915560208301517fed8d60e34876f751cc8b014c560745351147d9de11b9347c854e881b128ea6018054831691841691909117905560408301517fed8d60e34876f751cc8b014c560745351147d9de11b9347c854e881b128ea6028054831691841691909117905560608301517fed8d60e34876f751cc8b014c560745351147d9de11b9347c854e881b128ea6038054909216921691909117905550565b7f5ea69329017273582817d320489fbd94f775580e90c092699ca6f3d12fdf7d0080546001600160a01b03191673a02cda4ca3a71d7c46997716f4283aa851c2881217905560046101fc84826103d2565b50600561020983826103d2565b50600661021682826103d2565b5050505050505061048c565b634e487b7160e01b5f52604160045260245ffd5b5f82601f830112610245575f5ffd5b81516001600160401b0381111561025e5761025e610222565b604051601f8201601f19908116603f011681016001600160401b038111828210171561028c5761028c610222565b6040528181528382016020018510156102a3575f5ffd5b8160208501602083015e5f918101602001919091529392505050565b5f5f5f606084860312156102d1575f5ffd5b83516001600160401b038111156102e6575f5ffd5b6102f286828701610236565b602086015190945090506001600160401b0381111561030f575f5ffd5b61031b86828701610236565b604086015190935090506001600160401b03811115610338575f5ffd5b61034486828701610236565b9150509250925092565b600181811c9082168061036257607f821691505b60208210810361038057634e487b7160e01b5f52602260045260245ffd5b50919050565b601f8211156103cd57805f5260205f20601f840160051c810160208510156103ab5750805b601f840160051c820191505b818110156103ca575f81556001016103b7565b50505b505050565b81516001600160401b038111156103eb576103eb610222565b6103ff816103f9845461034e565b84610386565b6020601f821160018114610431575f831561041a5750848201515b5f19600385901b1c1916600184901b1784556103ca565b5f84815260208120601f198516915b828110156104605787850151825560209485019460019092019101610440565b508482101561047d57868401515f19600387901b60f8161c191681555b50505050600190811b01905550565b6122f4806104995f395ff3fe608060405234801561000f575f5ffd5b5060043610610163575f3560e01c806395d89b41116100c7578063d4febb961161007d578063e064b9bb11610063578063e064b9bb146102c5578063eb3155b5146102d8578063fa9b7018146102eb575f5ffd5b8063d4febb961461029f578063de642119146102b2575f5ffd5b8063b6483bab116100ad578063b6483bab14610266578063c535803c14610279578063c7b8a75e1461028c575f5ffd5b806395d89b411461023b578063b6363cf214610243575f5ffd5b80633c130d901161011c5780635409522711610102578063540952271461020b5780635bebed7e146102135780637279e26414610226575f5ffd5b80633c130d90146101f0578063537d3c50146101f8575f5ffd5b8063313ce5671161014c578063313ce567146101a6578063344ff101146101b557806334c45743146101dd575f5ffd5b806306fdde03146101675780632fb74e6214610185575b5f5ffd5b61016f61030e565b60405161017c9190611ac4565b60405180910390f35b610198610193366004611b2f565b61039e565b60405190815260200161017c565b6040516006815260200161017c565b6101986101c3366004611b85565b6001600160a01b03165f9081526020819052604090205490565b6101986101eb366004611b9e565b6103f1565b61016f61049a565b610198610206366004611b2f565b6104a9565b600354610198565b610198610221366004611c37565b61050b565b610239610234366004611d10565b61055f565b005b61016f6105ec565b610256610251366004611e05565b6105fb565b604051901515815260200161017c565b610239610274366004611e2d565b61064d565b610239610287366004611e80565b610691565b61019861029a366004611e97565b610747565b6102396102ad366004611f01565b6107ea565b6101986102c0366004611f40565b6107f9565b6101986102d3366004611e97565b610855565b6101986102e6366004611fc9565b6108da565b6102f56298968081565b60405167ffffffffffffffff909116815260200161017c565b60606004805461031d90612003565b80601f016020809104026020016040519081016040528092919081815260200182805461034990612003565b80156103945780601f1061036b57610100808354040283529160200191610394565b820191905f5260205f20905b81548152906001019060200180831161037757829003601f168201915b5050505050905090565b5f6103e833866103e38787878080601f0160208091040260200160405190810160405280939291908181526020018383808284375f9201919091525061097992505050565b610986565b95945050505050565b5f6103fc88336105fb565b8833909161043557604051631ae7729b60e11b81526001600160a01b039283166004820152911660248201526044015b60405180910390fd5b5050610482888861047b8989898080601f0160208091040260200160405190810160405280939291908181526020018383808284375f9201919091525061097992505050565b8686610a06565b905061048e8133610a5d565b50979650505050505050565b60606006805461031d90612003565b5f6104b48433610a6f565b843390916104e75760405163118f6e5360e31b815260048101929092526001600160a01b0316602482015260440161042c565b50506104f63386868686610a06565b90506105028133610a5d565b50949350505050565b5f6105168233610a6f565b823390916105495760405163118f6e5360e31b815260048101929092526001600160a01b0316602482015260440161042c565b5050610556338484610986565b90505b92915050565b6105698382610a7a565b5f83815260026020526040902054838161059957604051630ab5f57d60e01b815260040161042c91815260200190565b5060405167ffffffffffffffff8416815281907f83bbbc07896439e5d950a6cead04cbc676180af7a61cecf43f5296475057f5719060200160405180910390a25050505f90815260026020526040812055565b60606005805461031d90612003565b5f816001600160a01b0316836001600160a01b031614806105565750506001600160a01b039182165f90815260016020908152604080832093909416825291909152205465ffffffffffff1642111590565b5f61065a62989680610ae1565b90505f6106678484610979565b905061067d6106768284610af7565b8284610b25565b90506106898582610b31565b505050505050565b61069b8133610a6f565b80156106ac57506106ac8130610a6f565b813390916106df5760405163118f6e5360e31b815260048101929092526001600160a01b0316602482015260440161042c565b50506040805160018082528183019092525f916020808301908036833701905050905081815f815181106107155761071561203b565b60209081029190910101525f61073282631c9e789960e21b610b72565b5f908152600260205260409020929092555050565b5f6107528433610a6f565b843390916107855760405163118f6e5360e31b815260048101929092526001600160a01b0316602482015260440161042c565b505061079186336105fb565b863390916107c557604051631ae7729b60e11b81526001600160a01b0392831660048201529116602482015260440161042c565b50506107d48686868686610a06565b90506107e08133610a5d565b5095945050505050565b6107f5338383610b7e565b5050565b5f61083e338861047b8989898080601f0160208091040260200160405190810160405280939291908181526020018383808284375f9201919091525061097992505050565b905061084a8133610a5d565b509695505050505050565b5f61086086336105fb565b8633909161089457604051631ae7729b60e11b81526001600160a01b0392831660048201529116602482015260440161042c565b50506107d486866103e38787878080601f0160208091040260200160405190810160405280939291908181526020018383808284375f9201919091525061097992505050565b5f6108e58233610a6f565b823390916109185760405163118f6e5360e31b815260048101929092526001600160a01b0316602482015260440161042c565b505061092484336105fb565b8433909161095857604051631ae7729b60e11b81526001600160a01b0392831660048201529116602482015260440161042c565b5050610965848484610986565b90506109718133610a5d565b509392505050565b5f61055683836005610bf5565b5f806001600160a01b0385166109bb57604051631a9bbf8b60e11b81526001600160a01b03909116600482015260240161042c565b505f6001600160a01b0384166109f057604051636e41946d60e11b81526001600160a01b03909116600482015260240161042c565b506109fc848484610d02565b90505b9392505050565b5f5f610a13878787610986565b90505f610a24338989858989610edf565b90505f610a44888a610a3f85610a395f610ae1565b88610b25565b610d02565b9050610a508382610fe3565b9998505050505050505050565b5f610a688383611011565b5090919050565b5f6105568383611085565b5f610a8483611111565b90505f610a9182846111e2565b905080610ab15760405163cf6c44e960e01b815260040160405180910390fd5b60405184907f1af0453083661051f6e56e5c070792320652e612154bf9af8637bb1e7655b99d905f90a250505050565b5f6105598267ffffffffffffffff1660056112ea565b5f82610b0957610b065f610ae1565b92505b81610b1a57610b175f610ae1565b91505b61055683835f61138c565b5f6109fc848484611452565b5f806001600160a01b038416610b6657604051636e41946d60e11b81526001600160a01b03909116600482015260240161042c565b506105565f8484610d02565b5f61055683835f6114df565b6001600160a01b038381165f81815260016020908152604080832094871680845294825291829020805465ffffffffffff191665ffffffffffff871690811790915591519182527f921a218a75d18e8ec5704851e6b234a85725b21a2521ce889622c35dedc1fa12910160405180910390a3505050565b7fed8d60e34876f751cc8b014c560745351147d9de11b9347c854e881b128ea6015460405163196d0b9b60e01b81525f915f51602061229f5f395f51905f52916001600160a01b039091169063196d0b9b90610c5b908890339089908990600401612083565b6020604051808303815f875af1158015610c77573d5f5f3e3d5ffd5b505050506040513d601f19601f82011682018060405250810190610c9b91906120b9565b8154604051630f8e573b60e21b8152600481018390523360248201529193506001600160a01b031690633e395cec906044015f604051808303815f87803b158015610ce4575f5ffd5b505af1158015610cf6573d5f5f3e3d5ffd5b50505050509392505050565b5f80806001600160a01b038616610d3857610d1f60035485611618565b9092509050610d2d81611662565b506003819055610dbc565b6001600160a01b0386165f908152602081905260409020548681610d7b57604051636b8830d760e11b81526001600160a01b03909116600482015260240161042c565b50610d868186611671565b9093509150610d9482611662565b50610d9f828861169c565b50506001600160a01b0386165f9081526020819052604090208190555b610dcf8285610dca5f610ae1565b610b25565b92506001600160a01b038516610e0157610deb60035484610fe3565b9050610df681611662565b506003819055610e55565b6001600160a01b0385165f90815260208190526040902054610e2390846116a7565b9050610e2e81611662565b50610e39818661169c565b506001600160a01b0385165f9081526020819052604090208190555b6001600160a01b03861615610e7057610e6e838761169c565b505b6001600160a01b03851615610e8b57610e89838661169c565b505b610e9483611662565b5082856001600160a01b0316876001600160a01b03167f67500e8d0ed826d2194f514dd0d8124f35648ab6e3fb5e6ed867134cffe661e960405160405180910390a450509392505050565b5f6001600160a01b0385163b15610fcc576040516346083bfd60e01b81526001600160a01b038616906346083bfd90610f24908a908a908990899089906004016120d0565b6020604051808303815f875af1925050508015610f5e575060408051601f3d908101601f19168201909252610f5b918101906120b9565b60015b610fc5573d808015610f8b576040519150601f19603f3d011682016040523d82523d5f602084013e610f90565b606091505b5080515f03610fbd57604051636e41946d60e11b81526001600160a01b038716600482015260240161042c565b805181602001fd5b9050610fd9565b610fd660016116d5565b90505b9695505050505050565b5f82610ff557610ff25f610ae1565b92505b81611006576110035f610ae1565b91505b61055683835f6116f0565b5f51602061229f5f395f51905f528054604051630f8e573b60e21b8152600481018590526001600160a01b03848116602483015290911690633e395cec906044015b5f604051808303815f87803b15801561106a575f5ffd5b505af115801561107c573d5f5f3e3d5ffd5b50505050505050565b5f805f51602061229f5f395f51905f5280546040516382027b6d60e01b8152600481018790526001600160a01b0386811660248301529293509116906382027b6d90604401602060405180830381865afa1580156110e5573d5f5f3e3d5ffd5b505050506040513d601f19601f820116820180604052508101906111099190612125565b949350505050565b5f8181527f5ea69329017273582817d320489fbd94f775580e90c092699ca6f3d12fdf7d0260205260408120546060917f5ea69329017273582817d320489fbd94f775580e90c092699ca6f3d12fdf7d009190036111825760405163d66ca67560e01b815260040160405180910390fd5b5f838152600282016020908152604091829020805483518184028101840190945280845290918301828280156111d557602002820191905f5260205f20905b8154815260200190600101908083116111c1575b5050505050915050919050565b5f6024816111ef8561177a565b90505f8167ffffffffffffffff81111561120b5761120b611c5f565b6040519080825280601f01601f191660200182016040528015611235576020820181803683370190505b509050818360208301377fed8d60e34876f751cc8b014c560745351147d9de11b9347c854e881b128ea60254604051632c027b1360e21b81525f51602061229f5f395f51905f52916001600160a01b03169063b009ec4c9061129f908a9086908b9060040161217e565b6020604051808303815f875af11580156112bb573d5f5f3e3d5ffd5b505050506040513d601f19601f820116820180604052508101906112df9190612125565b979650505050505050565b7fed8d60e34876f751cc8b014c560745351147d9de11b9347c854e881b128ea60154604051639cd07acb60e01b81525f915f51602061229f5f395f51905f52916001600160a01b0390911690639cd07acb9061134c9087908790600401612208565b6020604051808303815f875af1158015611368573d5f5f3e3d5ffd5b505050506040513d601f19601f8201168201806040525081019061110991906120b9565b5f5f821561139f5750600160f81b6113a2565b505f5b7fed8d60e34876f751cc8b014c560745351147d9de11b9347c854e881b128ea60154604051637210768160e01b815260048101879052602481018690526001600160f81b0319831660448201525f51602061229f5f395f51905f52916001600160a01b0316906372107681906064015b6020604051808303815f875af115801561142e573d5f5f3e3d5ffd5b505050506040513d601f19601f82011682018060405250810190610fd991906120b9565b5f805f51602061229f5f395f51905f526001810154604051637702dcff60e01b81526004810188905260248101879052604481018690529192506001600160a01b031690637702dcff906064016020604051808303815f875af11580156114bb573d5f5f3e3d5ffd5b505050506040513d601f19601f820116820180604052508101906103e891906120b9565b7f5ea69329017273582817d320489fbd94f775580e90c092699ca6f3d12fdf7d01545f51602061229f5f395f51905f528054604051637d6e912360e11b81527f5ea69329017273582817d320489fbd94f775580e90c092699ca6f3d12fdf7d0092916001600160a01b03169063fadd22469061155f90899060040161221c565b5f604051808303815f87803b158015611576575f5ffd5b505af1158015611588573d5f5f3e3d5ffd5b50508354604051633263b83b60e01b81526001600160a01b039091169250633263b83b915086906115c19087908b908b9060040161222e565b5f604051808303818588803b1580156115d8575f5ffd5b505af11580156115ea573d5f5f3e3d5ffd5b50505050506115f98387611827565b600182018054905f61160a83612273565b919050555050509392505050565b5f80836116335761162960016116d5565b915082905061165b565b5f61163e85856116a7565b905061164a81866118ba565b9250611657838287610b25565b9150505b9250929050565b5f61166d82306118e8565b5090565b5f5f61167d84846118ba565b91506116938261168d8686610fe3565b86610b25565b90509250929050565b5f610a6883836118e8565b5f826116b9576116b65f610ae1565b92505b816116ca576116c75f610ae1565b91505b61055683835f61192e565b5f610559826116e4575f6116e7565b60015b60ff165f6112ea565b5f5f82156117035750600160f81b611706565b505f5b7fed8d60e34876f751cc8b014c560745351147d9de11b9347c854e881b128ea601546040516303056db360e31b815260048101879052602481018690526001600160f81b0319831660448201525f51602061229f5f395f51905f52916001600160a01b03169063182b6d9890606401611412565b80515f9081805b8281101561181b575f85828151811061179c5761179c61203b565b6020026020010151601e602081106117b6576117b661203b565b1a60538111156117c8576117c861204f565b905060098160538111156117de576117de61204f565b60ff1610156117f9576117f260208461228b565b9250611812565b60405163ce54a8d160e01b815260040160405180910390fd5b50600101611781565b5061110960208261228b565b5f8281527f5ea69329017273582817d320489fbd94f775580e90c092699ca6f3d12fdf7d0260205260409020547f5ea69329017273582817d320489fbd94f775580e90c092699ca6f3d12fdf7d00901561189457604051633f06d22b60e01b815260040160405180910390fd5b5f838152600282016020908152604090912083516118b492850190611a42565b50505050565b5f826118cc576118c95f610ae1565b92505b816118dd576118da5f610ae1565b91505b61055683835f6119b8565b5f51602061229f5f395f51905f528054604051635ca4b5b160e11b8152600481018590526001600160a01b0384811660248301529091169063b9496b6290604401611053565b5f5f82156119415750600160f81b611944565b505f5b7fed8d60e34876f751cc8b014c560745351147d9de11b9347c854e881b128ea6015460405163022f65e760e31b815260048101879052602481018690526001600160f81b0319831660448201525f51602061229f5f395f51905f52916001600160a01b03169063117b2f3890606401611412565b5f5f82156119cb5750600160f81b6119ce565b505f5b7fed8d60e34876f751cc8b014c560745351147d9de11b9347c854e881b128ea60154604051631391547f60e01b815260048101879052602481018690526001600160f81b0319831660448201525f51602061229f5f395f51905f52916001600160a01b031690631391547f90606401611412565b828054828255905f5260205f20908101928215611a7b579160200282015b82811115611a7b578251825591602001919060010190611a60565b5061166d9291505b8082111561166d575f8155600101611a83565b5f81518084528060208401602086015e5f602082860101526020601f19601f83011685010191505092915050565b602081525f6105566020830184611a96565b80356001600160a01b0381168114611aec575f5ffd5b919050565b5f5f83601f840112611b01575f5ffd5b50813567ffffffffffffffff811115611b18575f5ffd5b60208301915083602082850101111561165b575f5ffd5b5f5f5f5f60608587031215611b42575f5ffd5b611b4b85611ad6565b935060208501359250604085013567ffffffffffffffff811115611b6d575f5ffd5b611b7987828801611af1565b95989497509550505050565b5f60208284031215611b95575f5ffd5b61055682611ad6565b5f5f5f5f5f5f5f60a0888a031215611bb4575f5ffd5b611bbd88611ad6565b9650611bcb60208901611ad6565b955060408801359450606088013567ffffffffffffffff811115611bed575f5ffd5b611bf98a828b01611af1565b909550935050608088013567ffffffffffffffff811115611c18575f5ffd5b611c248a828b01611af1565b989b979a50959850939692959293505050565b5f5f60408385031215611c48575f5ffd5b611c5183611ad6565b946020939093013593505050565b634e487b7160e01b5f52604160045260245ffd5b604051601f8201601f1916810167ffffffffffffffff81118282101715611c9c57611c9c611c5f565b604052919050565b5f82601f830112611cb3575f5ffd5b813567ffffffffffffffff811115611ccd57611ccd611c5f565b611ce0601f8201601f1916602001611c73565b818152846020838601011115611cf4575f5ffd5b816020850160208301375f918101602001919091529392505050565b5f5f5f60608486031215611d22575f5ffd5b83359250602084013567ffffffffffffffff81168114611d40575f5ffd5b9150604084013567ffffffffffffffff811115611d5b575f5ffd5b8401601f81018613611d6b575f5ffd5b803567ffffffffffffffff811115611d8557611d85611c5f565b8060051b611d9560208201611c73565b91825260208184018101929081019089841115611db0575f5ffd5b6020850192505b83831015611df657823567ffffffffffffffff811115611dd5575f5ffd5b611de48b602083890101611ca4565b83525060209283019290910190611db7565b80955050505050509250925092565b5f5f60408385031215611e16575f5ffd5b611e1f83611ad6565b915061169360208401611ad6565b5f5f5f60608486031215611e3f575f5ffd5b611e4884611ad6565b925060208401359150604084013567ffffffffffffffff811115611e6a575f5ffd5b611e7686828701611ca4565b9150509250925092565b5f60208284031215611e90575f5ffd5b5035919050565b5f5f5f5f5f60808688031215611eab575f5ffd5b611eb486611ad6565b9450611ec260208701611ad6565b935060408601359250606086013567ffffffffffffffff811115611ee4575f5ffd5b611ef088828901611af1565b969995985093965092949392505050565b5f5f60408385031215611f12575f5ffd5b611f1b83611ad6565b9150602083013565ffffffffffff81168114611f35575f5ffd5b809150509250929050565b5f5f5f5f5f5f60808789031215611f55575f5ffd5b611f5e87611ad6565b955060208701359450604087013567ffffffffffffffff811115611f80575f5ffd5b611f8c89828a01611af1565b909550935050606087013567ffffffffffffffff811115611fab575f5ffd5b611fb789828a01611af1565b979a9699509497509295939492505050565b5f5f5f60608486031215611fdb575f5ffd5b611fe484611ad6565b9250611ff260208501611ad6565b929592945050506040919091013590565b600181811c9082168061201757607f821691505b60208210810361203557634e487b7160e01b5f52602260045260245ffd5b50919050565b634e487b7160e01b5f52603260045260245ffd5b634e487b7160e01b5f52602160045260245ffd5b6054811061207f57634e487b7160e01b5f52602160045260245ffd5b9052565b8481526001600160a01b0384166020820152608060408201525f6120aa6080830185611a96565b90506103e86060830184612063565b5f602082840312156120c9575f5ffd5b5051919050565b6001600160a01b03861681526001600160a01b038516602082015283604082015260806060820152816080820152818360a08301375f81830160a090810191909152601f909201601f19160101949350505050565b5f60208284031215612135575f5ffd5b815180151581146109ff575f5ffd5b5f8151808452602084019350602083015f5b82811015612174578151865260209586019590910190600101612156565b5093949350505050565b606081525f6121906060830186612144565b82810360208401526121a28186611a96565b9050828103604084015280845180835260208301915060208160051b840101602087015f5b838110156121f957601f198684030185526121e3838351611a96565b60209586019590935091909101906001016121c7565b50909998505050505050505050565b828152604081016109ff6020830184612063565b602081525f6105566020830184612144565b838152606060208201525f6122466060830185612144565b905063ffffffff60e01b83166040830152949350505050565b634e487b7160e01b5f52601160045260245ffd5b5f600182016122845761228461225f565b5060010190565b808201808211156105595761055961225f56feed8d60e34876f751cc8b014c560745351147d9de11b9347c854e881b128ea600a2646970667358221220df1eec739f4a6e118b2039f62730b1c5276ca634cf9abeb25f51cd393ce6f2c964736f6c634300081c0033",
  "linkReferences": {},
  "deployedLinkReferences": {},
  "immutableReferences": {},
  "inputSourceName": "project/contracts/cUSD.sol",
  "buildInfoId": "solc-0_8_28-aec5a25469e0d0ec1e14608ed200cb018225be6b"
}