{
  "_format": "hh3-artifact-1",
  "contractName": "USDERC20",
  "sourceName": "contracts/USDERC20.sol",
  "abi": [
    {
      "inputs": [
        {
          "internalType": "string",
          "name": "name",
          "type": "string"
        },
        {
          "internalType": "string",
          "name": "symbol",
          "type": "string"
        },
        {
          "internalType": "uint8",
          "name": "decimals_",
          "type": "uint8"
        }
      ],
      "stateMutability": "nonpayable",
      "type": "constructor"
    },
    {
      "inputs": [
        {
          "internalType": "address",
          "name": "spender",
          "type": "address"
        },
        {
          "internalType": "uint256",
          "name": "allowance",
          "type": "uint256"
        },
        {
          "internalType": "uint256",
          "name": "needed",
          "type": "uint256"
        }
      ],
      "name": "ERC20InsufficientAllowance",
      "type": "error"
    },
    {
      "inputs": [
        {
          "internalType": "address",
          "name": "sender",
          "type": "address"
        },
        {
          "internalType": "uint256",
          "name": "balance",
          "type": "uint256"
        },
        {
          "internalType": "uint256",
          "name": "needed",
          "type": "uint256"
        }
      ],
      "name": "ERC20InsufficientBalance",
      "type": "error"
    },
    {
      "inputs": [
        {
          "internalType": "address",
          "name": "approver",
          "type": "address"
        }
      ],
      "name": "ERC20InvalidApprover",
      "type": "error"
    },
    {
      "inputs": [
        {
          "internalType": "address",
          "name": "receiver",
          "type": "address"
        }
      ],
      "name": "ERC20InvalidReceiver",
      "type": "error"
    },
    {
      "inputs": [
        {
          "internalType": "address",
          "name": "sender",
          "type": "address"
        }
      ],
      "name": "ERC20InvalidSender",
      "type": "error"
    },
    {
      "inputs": [
        {
          "internalType": "address",
          "name": "spender",
          "type": "address"
        }
      ],
      "name": "ERC20InvalidSpender",
      "type": "error"
    },
    {
      "inputs": [
        {
          "internalType": "uint256",
          "name": "timeRemaining",
          "type": "uint256"
        }
      ],
      "name": "MintCooldownActive",
      "type": "error"
    },
    {
      "anonymous": false,
      "inputs": [
        {
          "indexed": true,
          "internalType": "address",
          "name": "owner",
          "type": "address"
        },
        {
          "indexed": true,
          "internalType": "address",
          "name": "spender",
          "type": "address"
        },
        {
          "indexed": false,
          "internalType": "uint256",
          "name": "value",
          "type": "uint256"
        }
      ],
      "name": "Approval",
      "type": "event"
    },
    {
      "anonymous": false,
      "inputs": [
        {
          "indexed": true,
          "internalType": "address",
          "name": "from",
          "type": "address"
        },
        {
          "indexed": true,
          "internalType": "address",
          "name": "to",
          "type": "address"
        },
        {
          "indexed": false,
          "internalType": "uint256",
          "name": "value",
          "type": "uint256"
        }
      ],
      "name": "Transfer",
      "type": "event"
    },
    {
      "inputs": [],
      "name": "MAX_MINT_AMOUNT",
      "outputs": [
        {
          "internalType": "uint256",
          "name": "",
          "type": "uint256"
        }
      ],
      "stateMutability": "view",
      "type": "function"
    },
    {
      "inputs": [],
      "name": "MINT_COOLDOWN",
      "outputs": [
        {
          "internalType": "uint256",
          "name": "",
          "type": "uint256"
        }
      ],
      "stateMutability": "view",
      "type": "function"
    },
    {
      "inputs": [
        {
          "internalType": "address",
          "name": "owner",
          "type": "address"
        },
        {
          "internalType": "address",
          "name": "spender",
          "type": "address"
        }
      ],
      "name": "allowance",
      "outputs": [
        {
          "internalType": "uint256",
          "name": "",
          "type": "uint256"
        }
      ],
      "stateMutability": "view",
      "type": "function"
    },
    {
      "inputs": [
        {
          "internalType": "address",
          "name": "spender",
          "type": "address"
        },
        {
          "internalType": "uint256",
          "name": "value",
          "type": "uint256"
        }
      ],
      "name": "approve",
      "outputs": [
        {
          "internalType": "bool",
          "name": "",
          "type": "bool"
        }
      ],
      "stateMutability": "nonpayable",
      "type": "function"
    },
    {
      "inputs": [
        {
          "internalType": "address",
          "name": "account",
          "type": "address"
        }
      ],
      "name": "balanceOf",
      "outputs": [
        {
          "internalType": "uint256",
          "name": "",
          "type": "uint256"
        }
      ],
      "stateMutability": "view",
      "type": "function"
    },
    {
      "inputs": [
        {
          "internalType": "uint256",
          "name": "amount",
          "type": "uint256"
        }
      ],
      "name": "burn",
      "outputs": [],
      "stateMutability": "nonpayable",
      "type": "function"
    },
    {
      "inputs": [
        {
          "internalType": "address",
          "name": "account",
          "type": "address"
        },
        {
          "internalType": "uint256",
          "name": "amount",
          "type": "uint256"
        }
      ],
      "name": "burnFrom",
      "outputs": [],
      "stateMutability": "nonpayable",
      "type": "function"
    },
    {
      "inputs": [],
      "name": "decimals",
      "outputs": [
        {
          "internalType": "uint8",
          "name": "",
          "type": "uint8"
        }
      ],
      "stateMutability": "view",
      "type": "function"
    },
    {
      "inputs": [
        {
          "internalType": "address",
          "name": "user",
          "type": "address"
        }
      ],
      "name": "getLastMintTime",
      "outputs": [
        {
          "internalType": "uint256",
          "name": "",
          "type": "uint256"
        }
      ],
      "stateMutability": "view",
      "type": "function"
    },
    {
      "inputs": [
        {
          "internalType": "address",
          "name": "",
          "type": "address"
        }
      ],
      "name": "lastMintTime",
      "outputs": [
        {
          "internalType": "uint256",
          "name": "",
          "type": "uint256"
        }
      ],
      "stateMutability": "view",
      "type": "function"
    },
    {
      "inputs": [
        {
          "internalType": "address",
          "name": "to",
          "type": "address"
        },
        {
          "internalType": "uint256",
          "name": "amount",
          "type": "uint256"
        }
      ],
      "name": "mint",
      "outputs": [],
      "stateMutability": "nonpayable",
      "type": "function"
    },
    {
      "inputs": [],
      "name": "name",
      "outputs": [
        {
          "internalType": "string",
          "name": "",
          "type": "string"
        }
      ],
      "stateMutability": "view",
      "type": "function"
    },
    {
      "inputs": [],
      "name": "symbol",
      "outputs": [
        {
          "internalType": "string",
          "name": "",
          "type": "string"
        }
      ],
      "stateMutability": "view",
      "type": "function"
    },
    {
      "inputs": [],
      "name": "totalSupply",
      "outputs": [
        {
          "internalType": "uint256",
          "name": "",
          "type": "uint256"
        }
      ],
      "stateMutability": "view",
      "type": "function"
    },
    {
      "inputs": [
        {
          "internalType": "address",
          "name": "to",
          "type": "address"
        },
        {
          "internalType": "uint256",
          "name": "value",
          "type": "uint256"
        }
      ],
      "name": "transfer",
      "outputs": [
        {
          "internalType": "bool",
          "name": "",
          "type": "bool"
        }
      ],
      "stateMutability": "nonpayable",
      "type": "function"
    },
    {
      "inputs": [
        {
          "internalType": "address",
          "name": "from",
          "type": "address"
        },
        {
          "internalType": "address",
          "name": "to",
          "type": "address"
        },
        {
          "internalType": "uint256",
          "name": "value",
          "type": "uint256"
        }
      ],
      "name": "transferFrom",
      "outputs": [
        {
          "internalType": "bool",
          "name": "",
          "type": "bool"
        }
      ],
      "stateMutability": "nonpayable",
      "type": "function"
    }
  ],
  "bytecode": "0x608060405234801561000f575f5ffd5b50604051610cbf380380610cbf83398101604081905261002e91610106565b8282600361003c8382610207565b5060046100498282610207565b50506005805460ff191660ff9390931692909217909155506102c1915050565b634e487b7160e01b5f52604160045260245ffd5b5f82601f83011261008c575f5ffd5b81516001600160401b038111156100a5576100a5610069565b604051601f8201601f19908116603f011681016001600160401b03811182821017156100d3576100d3610069565b6040528181528382016020018510156100ea575f5ffd5b8160208501602083015e5f918101602001919091529392505050565b5f5f5f60608486031215610118575f5ffd5b83516001600160401b0381111561012d575f5ffd5b6101398682870161007d565b602086015190945090506001600160401b03811115610156575f5ffd5b6101628682870161007d565b925050604084015160ff81168114610178575f5ffd5b809150509250925092565b600181811c9082168061019757607f821691505b6020821081036101b557634e487b7160e01b5f52602260045260245ffd5b50919050565b601f82111561020257805f5260205f20601f840160051c810160208510156101e05750805b601f840160051c820191505b818110156101ff575f81556001016101ec565b50505b505050565b81516001600160401b0381111561022057610220610069565b6102348161022e8454610183565b846101bb565b6020601f821160018114610266575f831561024f5750848201515b5f19600385901b1c1916600184901b1784556101ff565b5f84815260208120601f198516915b828110156102955787850151825560209485019460019092019101610275565b50848210156102b257868401515f19600387901b60f8161c191681555b50505050600190811b01905550565b6109f1806102ce5f395ff3fe608060405234801561000f575f5ffd5b50600436106100fb575f3560e01c806370a0823111610093578063c6a5679b11610063578063c6a5679b14610217578063dd62ed3e1461023f578063f7ee7a4314610277578063fa9b701814610281575f5ffd5b806370a08231146101c157806379cc6790146101e957806395d89b41146101fc578063a9059cbb14610204575f5ffd5b8063313ce567116100ce578063313ce5671461016557806340c10f191461017a57806342966c681461018f5780636aa71d18146101a2575f5ffd5b806306fdde03146100ff578063095ea7b31461011d57806318160ddd1461014057806323b872dd14610152575b5f5ffd5b61010761028c565b604051610114919061082f565b60405180910390f35b61013061012b36600461087f565b61031c565b6040519015158152602001610114565b6002545b604051908152602001610114565b6101306101603660046108a7565b610335565b60055460405160ff9091168152602001610114565b61018d61018836600461087f565b610358565b005b61018d61019d3660046108e1565b610420565b6101446101b03660046108f8565b60066020525f908152604090205481565b6101446101cf3660046108f8565b6001600160a01b03165f9081526020819052604090205490565b61018d6101f736600461087f565b61042d565b6101076104cf565b61013061021236600461087f565b6104de565b6101446102253660046108f8565b6001600160a01b03165f9081526006602052604090205490565b61014461024d366004610918565b6001600160a01b039182165f90815260016020908152604080832093909416825291909152205490565b6101446201518081565b610144633b9aca0081565b60606003805461029b90610949565b80601f01602080910402602001604051908101604052809291908181526020018280546102c790610949565b80156103125780601f106102e957610100808354040283529160200191610312565b820191905f5260205f20905b8154815290600101906020018083116102f557829003601f168201915b5050505050905090565b5f336103298185856104eb565b60019150505b92915050565b5f336103428582856104f8565b61034d85858561056e565b506001949350505050565b6001600160a01b0382165f9081526006602052604081205461037a9042610995565b6001600160a01b0384165f90815260066020526040902054909150158015906103a557506201518081105b156103dc576103b78162015180610995565b60405163ab8c174560e01b81526004016103d391815260200190565b60405180910390fd5b5f633b9aca0083116103ee57826103f4565b633b9aca005b6001600160a01b0385165f908152600660205260409020429055905061041a84826105cb565b50505050565b61042a3382610603565b50565b6001600160a01b0382165f908152600160209081526040808320338452909152902054818110156104ac5760405162461bcd60e51b8152602060048201526024808201527f45524332303a206275726e20616d6f756e74206578636565647320616c6c6f77604482015263616e636560e01b60648201526084016103d3565b6104c083336104bb8585610995565b6104eb565b6104ca8383610603565b505050565b60606004805461029b90610949565b5f3361032981858561056e565b6104ca8383836001610637565b6001600160a01b038381165f908152600160209081526040808320938616835292905220545f1981101561041a578181101561056057604051637dc7a0d960e11b81526001600160a01b038416600482015260248101829052604481018390526064016103d3565b61041a84848484035f610637565b6001600160a01b03831661059757604051634b637e8f60e11b81525f60048201526024016103d3565b6001600160a01b0382166105c05760405163ec442f0560e01b81525f60048201526024016103d3565b6104ca838383610709565b6001600160a01b0382166105f45760405163ec442f0560e01b81525f60048201526024016103d3565b6105ff5f8383610709565b5050565b6001600160a01b03821661062c57604051634b637e8f60e11b81525f60048201526024016103d3565b6105ff825f83610709565b6001600160a01b0384166106605760405163e602df0560e01b81525f60048201526024016103d3565b6001600160a01b03831661068957604051634a1406b160e11b81525f60048201526024016103d3565b6001600160a01b038085165f908152600160209081526040808320938716835292905220829055801561041a57826001600160a01b0316846001600160a01b03167f8c5be1e5ebec7d5bd14f71427d1e84f3dd0314c0f7b2291e5b200ac8c7c3b925846040516106fb91815260200190565b60405180910390a350505050565b6001600160a01b038316610733578060025f82825461072891906109a8565b909155506107a39050565b6001600160a01b0383165f90815260208190526040902054818110156107855760405163391434e360e21b81526001600160a01b038516600482015260248101829052604481018390526064016103d3565b6001600160a01b0384165f9081526020819052604090209082900390555b6001600160a01b0382166107bf576002805482900390556107dd565b6001600160a01b0382165f9081526020819052604090208054820190555b816001600160a01b0316836001600160a01b03167fddf252ad1be2c89b69c2b068fc378daa952ba7f163c4a11628f55a4df523b3ef8360405161082291815260200190565b60405180910390a3505050565b602081525f82518060208401528060208501604085015e5f604082850101526040601f19601f83011684010191505092915050565b80356001600160a01b038116811461087a575f5ffd5b919050565b5f5f60408385031215610890575f5ffd5b61089983610864565b946020939093013593505050565b5f5f5f606084860312156108b9575f5ffd5b6108c284610864565b92506108d060208501610864565b929592945050506040919091013590565b5f602082840312156108f1575f5ffd5b5035919050565b5f60208284031215610908575f5ffd5b61091182610864565b9392505050565b5f5f60408385031215610929575f5ffd5b61093283610864565b915061094060208401610864565b90509250929050565b600181811c9082168061095d57607f821691505b60208210810361097b57634e487b7160e01b5f52602260045260245ffd5b50919050565b634e487b7160e01b5f52601160045260245ffd5b8181038181111561032f5761032f610981565b8082018082111561032f5761032f61098156fea2646970667358221220e94524e1f7f09eddff30d9c276497f4f7cd93f2a3ff5b02a9f4f8dd61b4867d664736f6c634300081c0033",
  "linkReferences": {},
  "deployedLinkReferences": {},
  "immutableReferences": {},
  "inputSourceName": "project/contracts/USDERC20.sol",
  "buildInfoId": "solc-0_8_28-fdfd87d33b59b6386707fd5d4549b33a4e1c1bb9"
}