{
  "_format": "hh3-artifact-1",
  "contractName": "USDERC20",
  "sourceName": "contracts/USDERC20.sol",
  "abi": [
    {
      "inputs": [
        {
          "internalType": "string",
          "name": "name",
          "type": "string"
        },
        {
          "internalType": "string",
          "name": "symbol",
          "type": "string"
        },
        {
          "internalType": "uint8",
          "name": "decimals_",
          "type": "uint8"
        }
      ],
      "stateMutability": "nonpayable",
      "type": "constructor"
    },
    {
      "inputs": [
        {
          "internalType": "address",
          "name": "spender",
          "type": "address"
        },
        {
          "internalType": "uint256",
          "name": "allowance",
          "type": "uint256"
        },
        {
          "internalType": "uint256",
          "name": "needed",
          "type": "uint256"
        }
      ],
      "name": "ERC20InsufficientAllowance",
      "type": "error"
    },
    {
      "inputs": [
        {
          "internalType": "address",
          "name": "sender",
          "type": "address"
        },
        {
          "internalType": "uint256",
          "name": "balance",
          "type": "uint256"
        },
        {
          "internalType": "uint256",
          "name": "needed",
          "type": "uint256"
        }
      ],
      "name": "ERC20InsufficientBalance",
      "type": "error"
    },
    {
      "inputs": [
        {
          "internalType": "address",
          "name": "approver",
          "type": "address"
        }
      ],
      "name": "ERC20InvalidApprover",
      "type": "error"
    },
    {
      "inputs": [
        {
          "internalType": "address",
          "name": "receiver",
          "type": "address"
        }
      ],
      "name": "ERC20InvalidReceiver",
      "type": "error"
    },
    {
      "inputs": [
        {
          "internalType": "address",
          "name": "sender",
          "type": "address"
        }
      ],
      "name": "ERC20InvalidSender",
      "type": "error"
    },
    {
      "inputs": [
        {
          "internalType": "address",
          "name": "spender",
          "type": "address"
        }
      ],
      "name": "ERC20InvalidSpender",
      "type": "error"
    },
    {
      "inputs": [
        {
          "internalType": "uint256",
          "name": "timeRemaining",
          "type": "uint256"
        }
      ],
      "name": "MintCooldownActive",
      "type": "error"
    },
    {
      "anonymous": false,
      "inputs": [
        {
          "indexed": true,
          "internalType": "address",
          "name": "owner",
          "type": "address"
        },
        {
          "indexed": true,
          "internalType": "address",
          "name": "spender",
          "type": "address"
        },
        {
          "indexed": false,
          "internalType": "uint256",
          "name": "value",
          "type": "uint256"
        }
      ],
      "name": "Approval",
      "type": "event"
    },
    {
      "anonymous": false,
      "inputs": [
        {
          "indexed": true,
          "internalType": "address",
          "name": "from",
          "type": "address"
        },
        {
          "indexed": true,
          "internalType": "address",
          "name": "to",
          "type": "address"
        },
        {
          "indexed": false,
          "internalType": "uint256",
          "name": "value",
          "type": "uint256"
        }
      ],
      "name": "Transfer",
      "type": "event"
    },
    {
      "inputs": [
        {
          "internalType": "address",
          "name": "owner",
          "type": "address"
        },
        {
          "internalType": "address",
          "name": "spender",
          "type": "address"
        }
      ],
      "name": "allowance",
      "outputs": [
        {
          "internalType": "uint256",
          "name": "",
          "type": "uint256"
        }
      ],
      "stateMutability": "view",
      "type": "function"
    },
    {
      "inputs": [
        {
          "internalType": "address",
          "name": "spender",
          "type": "address"
        },
        {
          "internalType": "uint256",
          "name": "value",
          "type": "uint256"
        }
      ],
      "name": "approve",
      "outputs": [
        {
          "internalType": "bool",
          "name": "",
          "type": "bool"
        }
      ],
      "stateMutability": "nonpayable",
      "type": "function"
    },
    {
      "inputs": [
        {
          "internalType": "address",
          "name": "account",
          "type": "address"
        }
      ],
      "name": "balanceOf",
      "outputs": [
        {
          "internalType": "uint256",
          "name": "",
          "type": "uint256"
        }
      ],
      "stateMutability": "view",
      "type": "function"
    },
    {
      "inputs": [
        {
          "internalType": "uint256",
          "name": "amount",
          "type": "uint256"
        }
      ],
      "name": "burn",
      "outputs": [],
      "stateMutability": "nonpayable",
      "type": "function"
    },
    {
      "inputs": [
        {
          "internalType": "address",
          "name": "account",
          "type": "address"
        },
        {
          "internalType": "uint256",
          "name": "amount",
          "type": "uint256"
        }
      ],
      "name": "burnFrom",
      "outputs": [],
      "stateMutability": "nonpayable",
      "type": "function"
    },
    {
      "inputs": [],
      "name": "decimals",
      "outputs": [
        {
          "internalType": "uint8",
          "name": "",
          "type": "uint8"
        }
      ],
      "stateMutability": "view",
      "type": "function"
    },
    {
      "inputs": [],
      "name": "name",
      "outputs": [
        {
          "internalType": "string",
          "name": "",
          "type": "string"
        }
      ],
      "stateMutability": "view",
      "type": "function"
    },
    {
      "inputs": [],
      "name": "symbol",
      "outputs": [
        {
          "internalType": "string",
          "name": "",
          "type": "string"
        }
      ],
      "stateMutability": "view",
      "type": "function"
    },
    {
      "inputs": [],
      "name": "totalSupply",
      "outputs": [
        {
          "internalType": "uint256",
          "name": "",
          "type": "uint256"
        }
      ],
      "stateMutability": "view",
      "type": "function"
    },
    {
      "inputs": [
        {
          "internalType": "address",
          "name": "to",
          "type": "address"
        },
        {
          "internalType": "uint256",
          "name": "value",
          "type": "uint256"
        }
      ],
      "name": "transfer",
      "outputs": [
        {
          "internalType": "bool",
          "name": "",
          "type": "bool"
        }
      ],
      "stateMutability": "nonpayable",
      "type": "function"
    },
    {
      "inputs": [
        {
          "internalType": "address",
          "name": "from",
          "type": "address"
        },
        {
          "internalType": "address",
          "name": "to",
          "type": "address"
        },
        {
          "internalType": "uint256",
          "name": "value",
          "type": "uint256"
        }
      ],
      "name": "transferFrom",
      "outputs": [
        {
          "internalType": "bool",
          "name": "",
          "type": "bool"
        }
      ],
      "stateMutability": "nonpayable",
      "type": "function"
    }
  ],
  "bytecode": "0x608060405234801561000f575f5ffd5b50604051610b28380380610b2883398101604081905261002e91610106565b8282600361003c8382610207565b5060046100498282610207565b50506005805460ff191660ff9390931692909217909155506102c1915050565b634e487b7160e01b5f52604160045260245ffd5b5f82601f83011261008c575f5ffd5b81516001600160401b038111156100a5576100a5610069565b604051601f8201601f19908116603f011681016001600160401b03811182821017156100d3576100d3610069565b6040528181528382016020018510156100ea575f5ffd5b8160208501602083015e5f918101602001919091529392505050565b5f5f5f60608486031215610118575f5ffd5b83516001600160401b0381111561012d575f5ffd5b6101398682870161007d565b602086015190945090506001600160401b03811115610156575f5ffd5b6101628682870161007d565b925050604084015160ff81168114610178575f5ffd5b809150509250925092565b600181811c9082168061019757607f821691505b6020821081036101b557634e487b7160e01b5f52602260045260245ffd5b50919050565b601f82111561020257805f5260205f20601f840160051c810160208510156101e05750805b601f840160051c820191505b818110156101ff575f81556001016101ec565b50505b505050565b81516001600160401b0381111561022057610220610069565b6102348161022e8454610183565b846101bb565b6020601f821160018114610266575f831561024f5750848201515b5f19600385901b1c1916600184901b1784556101ff565b5f84815260208120601f198516915b828110156102955787850151825560209485019460019092019101610275565b50848210156102b257868401515f19600387901b60f8161c191681555b50505050600190811b01905550565b61085a806102ce5f395ff3fe608060405234801561000f575f5ffd5b50600436106100c4575f3560e01c806342966c681161007d57806395d89b411161005857806395d89b4114610193578063a9059cbb1461019b578063dd62ed3e146101ae575f5ffd5b806342966c681461014357806370a082311461015857806379cc679014610180575f5ffd5b806318160ddd116100ad57806318160ddd1461010957806323b872dd1461011b578063313ce5671461012e575f5ffd5b806306fdde03146100c8578063095ea7b3146100e6575b5f5ffd5b6100d06101e6565b6040516100dd9190610698565b60405180910390f35b6100f96100f43660046106e8565b610276565b60405190151581526020016100dd565b6002545b6040519081526020016100dd565b6100f9610129366004610710565b61028f565b60055460405160ff90911681526020016100dd565b61015661015136600461074a565b6102b2565b005b61010d610166366004610761565b6001600160a01b03165f9081526020819052604090205490565b61015661018e3660046106e8565b6102bf565b6100d0610366565b6100f96101a93660046106e8565b610375565b61010d6101bc366004610781565b6001600160a01b039182165f90815260016020908152604080832093909416825291909152205490565b6060600380546101f5906107b2565b80601f0160208091040260200160405190810160405280929190818152602001828054610221906107b2565b801561026c5780601f106102435761010080835404028352916020019161026c565b820191905f5260205f20905b81548152906001019060200180831161024f57829003601f168201915b5050505050905090565b5f33610283818585610382565b60019150505b92915050565b5f3361029c85828561038f565b6102a785858561040b565b506001949350505050565b6102bc3382610468565b50565b6001600160a01b0382165f908152600160209081526040808320338452909152902054818110156103435760405162461bcd60e51b8152602060048201526024808201527f45524332303a206275726e20616d6f756e74206578636565647320616c6c6f77604482015263616e636560e01b60648201526084015b60405180910390fd5b610357833361035285856107fe565b610382565b6103618383610468565b505050565b6060600480546101f5906107b2565b5f3361028381858561040b565b61036183838360016104a0565b6001600160a01b038381165f908152600160209081526040808320938616835292905220545f1981101561040557818110156103f757604051637dc7a0d960e11b81526001600160a01b0384166004820152602481018290526044810183905260640161033a565b61040584848484035f6104a0565b50505050565b6001600160a01b03831661043457604051634b637e8f60e11b81525f600482015260240161033a565b6001600160a01b03821661045d5760405163ec442f0560e01b81525f600482015260240161033a565b610361838383610572565b6001600160a01b03821661049157604051634b637e8f60e11b81525f600482015260240161033a565b61049c825f83610572565b5050565b6001600160a01b0384166104c95760405163e602df0560e01b81525f600482015260240161033a565b6001600160a01b0383166104f257604051634a1406b160e11b81525f600482015260240161033a565b6001600160a01b038085165f908152600160209081526040808320938716835292905220829055801561040557826001600160a01b0316846001600160a01b03167f8c5be1e5ebec7d5bd14f71427d1e84f3dd0314c0f7b2291e5b200ac8c7c3b9258460405161056491815260200190565b60405180910390a350505050565b6001600160a01b03831661059c578060025f8282546105919190610811565b9091555061060c9050565b6001600160a01b0383165f90815260208190526040902054818110156105ee5760405163391434e360e21b81526001600160a01b0385166004820152602481018290526044810183905260640161033a565b6001600160a01b0384165f9081526020819052604090209082900390555b6001600160a01b03821661062857600280548290039055610646565b6001600160a01b0382165f9081526020819052604090208054820190555b816001600160a01b0316836001600160a01b03167fddf252ad1be2c89b69c2b068fc378daa952ba7f163c4a11628f55a4df523b3ef8360405161068b91815260200190565b60405180910390a3505050565b602081525f82518060208401528060208501604085015e5f604082850101526040601f19601f83011684010191505092915050565b80356001600160a01b03811681146106e3575f5ffd5b919050565b5f5f604083850312156106f9575f5ffd5b610702836106cd565b946020939093013593505050565b5f5f5f60608486031215610722575f5ffd5b61072b846106cd565b9250610739602085016106cd565b929592945050506040919091013590565b5f6020828403121561075a575f5ffd5b5035919050565b5f60208284031215610771575f5ffd5b61077a826106cd565b9392505050565b5f5f60408385031215610792575f5ffd5b61079b836106cd565b91506107a9602084016106cd565b90509250929050565b600181811c908216806107c657607f821691505b6020821081036107e457634e487b7160e01b5f52602260045260245ffd5b50919050565b634e487b7160e01b5f52601160045260245ffd5b81810381811115610289576102896107ea565b80820180821115610289576102896107ea56fea26469706673582212200d82cbfee0a2ce7859c5377bbe92030f8c414d90c6ee456a1547784618bd628d64736f6c634300081c0033",
  "linkReferences": {},
  "deployedLinkReferences": {},
  "immutableReferences": {},
  "inputSourceName": "project/contracts/USDERC20.sol",
  "buildInfoId": "solc-0_8_28-d7e04bd022ae203a82360def183e1f908e2ab9b4"
}