{
  "_format": "hh3-artifact-1",
  "contractName": "WrapperToken",
  "sourceName": "contracts/WrapperToken.sol",
  "abi": [
    {
      "inputs": [
        {
          "internalType": "string",
          "name": "name",
          "type": "string"
        },
        {
          "internalType": "string",
          "name": "symbol",
          "type": "string"
        },
        {
          "internalType": "string",
          "name": "uri",
          "type": "string"
        },
        {
          "internalType": "contract IERC20",
          "name": "underlying",
          "type": "address"
        }
      ],
      "stateMutability": "nonpayable",
      "type": "constructor"
    },
    {
      "inputs": [
        {
          "internalType": "uint256",
          "name": "requestId",
          "type": "uint256"
        }
      ],
      "name": "ConfidentialFungibleTokenInvalidGatewayRequest",
      "type": "error"
    },
    {
      "inputs": [
        {
          "internalType": "address",
          "name": "receiver",
          "type": "address"
        }
      ],
      "name": "ConfidentialFungibleTokenInvalidReceiver",
      "type": "error"
    },
    {
      "inputs": [
        {
          "internalType": "address",
          "name": "sender",
          "type": "address"
        }
      ],
      "name": "ConfidentialFungibleTokenInvalidSender",
      "type": "error"
    },
    {
      "inputs": [
        {
          "internalType": "address",
          "name": "caller",
          "type": "address"
        }
      ],
      "name": "ConfidentialFungibleTokenUnauthorizedCaller",
      "type": "error"
    },
    {
      "inputs": [
        {
          "internalType": "address",
          "name": "holder",
          "type": "address"
        },
        {
          "internalType": "address",
          "name": "spender",
          "type": "address"
        }
      ],
      "name": "ConfidentialFungibleTokenUnauthorizedSpender",
      "type": "error"
    },
    {
      "inputs": [
        {
          "internalType": "euint64",
          "name": "amount",
          "type": "bytes32"
        },
        {
          "internalType": "address",
          "name": "user",
          "type": "address"
        }
      ],
      "name": "ConfidentialFungibleTokenUnauthorizedUseOfEncryptedAmount",
      "type": "error"
    },
    {
      "inputs": [
        {
          "internalType": "address",
          "name": "holder",
          "type": "address"
        }
      ],
      "name": "ConfidentialFungibleTokenZeroBalance",
      "type": "error"
    },
    {
      "inputs": [],
      "name": "HandlesAlreadySavedForRequestID",
      "type": "error"
    },
    {
      "inputs": [],
      "name": "InvalidKMSSignatures",
      "type": "error"
    },
    {
      "inputs": [],
      "name": "NoHandleFoundForRequestID",
      "type": "error"
    },
    {
      "inputs": [
        {
          "internalType": "uint8",
          "name": "bits",
          "type": "uint8"
        },
        {
          "internalType": "uint256",
          "name": "value",
          "type": "uint256"
        }
      ],
      "name": "SafeCastOverflowedUintDowncast",
      "type": "error"
    },
    {
      "inputs": [
        {
          "internalType": "address",
          "name": "token",
          "type": "address"
        }
      ],
      "name": "SafeERC20FailedOperation",
      "type": "error"
    },
    {
      "inputs": [],
      "name": "UnsupportedHandleType",
      "type": "error"
    },
    {
      "anonymous": false,
      "inputs": [
        {
          "indexed": true,
          "internalType": "euint64",
          "name": "encryptedAmount",
          "type": "bytes32"
        },
        {
          "indexed": false,
          "internalType": "uint64",
          "name": "amount",
          "type": "uint64"
        }
      ],
      "name": "AmountDisclosed",
      "type": "event"
    },
    {
      "anonymous": false,
      "inputs": [
        {
          "indexed": true,
          "internalType": "address",
          "name": "from",
          "type": "address"
        },
        {
          "indexed": true,
          "internalType": "address",
          "name": "to",
          "type": "address"
        },
        {
          "indexed": true,
          "internalType": "euint64",
          "name": "amount",
          "type": "bytes32"
        }
      ],
      "name": "ConfidentialTransfer",
      "type": "event"
    },
    {
      "anonymous": false,
      "inputs": [
        {
          "indexed": true,
          "internalType": "uint256",
          "name": "requestID",
          "type": "uint256"
        }
      ],
      "name": "DecryptionFulfilled",
      "type": "event"
    },
    {
      "anonymous": false,
      "inputs": [
        {
          "indexed": true,
          "internalType": "address",
          "name": "holder",
          "type": "address"
        },
        {
          "indexed": true,
          "internalType": "address",
          "name": "operator",
          "type": "address"
        },
        {
          "indexed": false,
          "internalType": "uint48",
          "name": "until",
          "type": "uint48"
        }
      ],
      "name": "OperatorSet",
      "type": "event"
    },
    {
      "inputs": [
        {
          "internalType": "address",
          "name": "from",
          "type": "address"
        },
        {
          "internalType": "externalEuint64",
          "name": "amount",
          "type": "bytes32"
        },
        {
          "internalType": "bytes",
          "name": "inputProof",
          "type": "bytes"
        }
      ],
      "name": "burn",
      "outputs": [],
      "stateMutability": "nonpayable",
      "type": "function"
    },
    {
      "inputs": [
        {
          "internalType": "address",
          "name": "account",
          "type": "address"
        }
      ],
      "name": "confidentialBalanceOf",
      "outputs": [
        {
          "internalType": "euint64",
          "name": "",
          "type": "bytes32"
        }
      ],
      "stateMutability": "view",
      "type": "function"
    },
    {
      "inputs": [],
      "name": "confidentialTotalSupply",
      "outputs": [
        {
          "internalType": "euint64",
          "name": "",
          "type": "bytes32"
        }
      ],
      "stateMutability": "view",
      "type": "function"
    },
    {
      "inputs": [
        {
          "internalType": "address",
          "name": "to",
          "type": "address"
        },
        {
          "internalType": "externalEuint64",
          "name": "encryptedAmount",
          "type": "bytes32"
        },
        {
          "internalType": "bytes",
          "name": "inputProof",
          "type": "bytes"
        }
      ],
      "name": "confidentialTransfer",
      "outputs": [
        {
          "internalType": "euint64",
          "name": "",
          "type": "bytes32"
        }
      ],
      "stateMutability": "nonpayable",
      "type": "function"
    },
    {
      "inputs": [
        {
          "internalType": "address",
          "name": "to",
          "type": "address"
        },
        {
          "internalType": "euint64",
          "name": "amount",
          "type": "bytes32"
        }
      ],
      "name": "confidentialTransfer",
      "outputs": [
        {
          "internalType": "euint64",
          "name": "",
          "type": "bytes32"
        }
      ],
      "stateMutability": "nonpayable",
      "type": "function"
    },
    {
      "inputs": [
        {
          "internalType": "address",
          "name": "to",
          "type": "address"
        },
        {
          "internalType": "euint64",
          "name": "amount",
          "type": "bytes32"
        },
        {
          "internalType": "bytes",
          "name": "data",
          "type": "bytes"
        }
      ],
      "name": "confidentialTransferAndCall",
      "outputs": [
        {
          "internalType": "euint64",
          "name": "transferred",
          "type": "bytes32"
        }
      ],
      "stateMutability": "nonpayable",
      "type": "function"
    },
    {
      "inputs": [
        {
          "internalType": "address",
          "name": "to",
          "type": "address"
        },
        {
          "internalType": "externalEuint64",
          "name": "encryptedAmount",
          "type": "bytes32"
        },
        {
          "internalType": "bytes",
          "name": "inputProof",
          "type": "bytes"
        },
        {
          "internalType": "bytes",
          "name": "data",
          "type": "bytes"
        }
      ],
      "name": "confidentialTransferAndCall",
      "outputs": [
        {
          "internalType": "euint64",
          "name": "transferred",
          "type": "bytes32"
        }
      ],
      "stateMutability": "nonpayable",
      "type": "function"
    },
    {
      "inputs": [
        {
          "internalType": "address",
          "name": "from",
          "type": "address"
        },
        {
          "internalType": "address",
          "name": "to",
          "type": "address"
        },
        {
          "internalType": "externalEuint64",
          "name": "encryptedAmount",
          "type": "bytes32"
        },
        {
          "internalType": "bytes",
          "name": "inputProof",
          "type": "bytes"
        }
      ],
      "name": "confidentialTransferFrom",
      "outputs": [
        {
          "internalType": "euint64",
          "name": "transferred",
          "type": "bytes32"
        }
      ],
      "stateMutability": "nonpayable",
      "type": "function"
    },
    {
      "inputs": [
        {
          "internalType": "address",
          "name": "from",
          "type": "address"
        },
        {
          "internalType": "address",
          "name": "to",
          "type": "address"
        },
        {
          "internalType": "euint64",
          "name": "amount",
          "type": "bytes32"
        }
      ],
      "name": "confidentialTransferFrom",
      "outputs": [
        {
          "internalType": "euint64",
          "name": "transferred",
          "type": "bytes32"
        }
      ],
      "stateMutability": "nonpayable",
      "type": "function"
    },
    {
      "inputs": [
        {
          "internalType": "address",
          "name": "from",
          "type": "address"
        },
        {
          "internalType": "address",
          "name": "to",
          "type": "address"
        },
        {
          "internalType": "externalEuint64",
          "name": "encryptedAmount",
          "type": "bytes32"
        },
        {
          "internalType": "bytes",
          "name": "inputProof",
          "type": "bytes"
        },
        {
          "internalType": "bytes",
          "name": "data",
          "type": "bytes"
        }
      ],
      "name": "confidentialTransferFromAndCall",
      "outputs": [
        {
          "internalType": "euint64",
          "name": "transferred",
          "type": "bytes32"
        }
      ],
      "stateMutability": "nonpayable",
      "type": "function"
    },
    {
      "inputs": [
        {
          "internalType": "address",
          "name": "from",
          "type": "address"
        },
        {
          "internalType": "address",
          "name": "to",
          "type": "address"
        },
        {
          "internalType": "euint64",
          "name": "amount",
          "type": "bytes32"
        },
        {
          "internalType": "bytes",
          "name": "data",
          "type": "bytes"
        }
      ],
      "name": "confidentialTransferFromAndCall",
      "outputs": [
        {
          "internalType": "euint64",
          "name": "transferred",
          "type": "bytes32"
        }
      ],
      "stateMutability": "nonpayable",
      "type": "function"
    },
    {
      "inputs": [],
      "name": "decimals",
      "outputs": [
        {
          "internalType": "uint8",
          "name": "",
          "type": "uint8"
        }
      ],
      "stateMutability": "view",
      "type": "function"
    },
    {
      "inputs": [
        {
          "internalType": "euint64",
          "name": "encryptedAmount",
          "type": "bytes32"
        }
      ],
      "name": "discloseEncryptedAmount",
      "outputs": [],
      "stateMutability": "nonpayable",
      "type": "function"
    },
    {
      "inputs": [
        {
          "internalType": "uint256",
          "name": "requestId",
          "type": "uint256"
        },
        {
          "internalType": "uint64",
          "name": "amount",
          "type": "uint64"
        },
        {
          "internalType": "bytes[]",
          "name": "signatures",
          "type": "bytes[]"
        }
      ],
      "name": "finalizeDiscloseEncryptedAmount",
      "outputs": [],
      "stateMutability": "nonpayable",
      "type": "function"
    },
    {
      "inputs": [
        {
          "internalType": "uint256",
          "name": "requestID",
          "type": "uint256"
        },
        {
          "internalType": "uint64",
          "name": "amount",
          "type": "uint64"
        },
        {
          "internalType": "bytes[]",
          "name": "signatures",
          "type": "bytes[]"
        }
      ],
      "name": "finalizeUnwrap",
      "outputs": [],
      "stateMutability": "nonpayable",
      "type": "function"
    },
    {
      "inputs": [
        {
          "internalType": "address",
          "name": "holder",
          "type": "address"
        },
        {
          "internalType": "address",
          "name": "spender",
          "type": "address"
        }
      ],
      "name": "isOperator",
      "outputs": [
        {
          "internalType": "bool",
          "name": "",
          "type": "bool"
        }
      ],
      "stateMutability": "view",
      "type": "function"
    },
    {
      "inputs": [],
      "name": "name",
      "outputs": [
        {
          "internalType": "string",
          "name": "",
          "type": "string"
        }
      ],
      "stateMutability": "view",
      "type": "function"
    },
    {
      "inputs": [
        {
          "internalType": "address",
          "name": "",
          "type": "address"
        },
        {
          "internalType": "address",
          "name": "from",
          "type": "address"
        },
        {
          "internalType": "uint256",
          "name": "amount",
          "type": "uint256"
        },
        {
          "internalType": "bytes",
          "name": "data",
          "type": "bytes"
        }
      ],
      "name": "onTransferReceived",
      "outputs": [
        {
          "internalType": "bytes4",
          "name": "",
          "type": "bytes4"
        }
      ],
      "stateMutability": "nonpayable",
      "type": "function"
    },
    {
      "inputs": [],
      "name": "rate",
      "outputs": [
        {
          "internalType": "uint256",
          "name": "",
          "type": "uint256"
        }
      ],
      "stateMutability": "view",
      "type": "function"
    },
    {
      "inputs": [
        {
          "internalType": "address",
          "name": "operator",
          "type": "address"
        },
        {
          "internalType": "uint48",
          "name": "until",
          "type": "uint48"
        }
      ],
      "name": "setOperator",
      "outputs": [],
      "stateMutability": "nonpayable",
      "type": "function"
    },
    {
      "inputs": [],
      "name": "symbol",
      "outputs": [
        {
          "internalType": "string",
          "name": "",
          "type": "string"
        }
      ],
      "stateMutability": "view",
      "type": "function"
    },
    {
      "inputs": [],
      "name": "tokenURI",
      "outputs": [
        {
          "internalType": "string",
          "name": "",
          "type": "string"
        }
      ],
      "stateMutability": "view",
      "type": "function"
    },
    {
      "inputs": [],
      "name": "underlying",
      "outputs": [
        {
          "internalType": "contract IERC20",
          "name": "",
          "type": "address"
        }
      ],
      "stateMutability": "view",
      "type": "function"
    },
    {
      "inputs": [
        {
          "internalType": "address",
          "name": "from",
          "type": "address"
        },
        {
          "internalType": "address",
          "name": "to",
          "type": "address"
        },
        {
          "internalType": "externalEuint64",
          "name": "encryptedAmount",
          "type": "bytes32"
        },
        {
          "internalType": "bytes",
          "name": "inputProof",
          "type": "bytes"
        }
      ],
      "name": "unwrap",
      "outputs": [],
      "stateMutability": "nonpayable",
      "type": "function"
    },
    {
      "inputs": [
        {
          "internalType": "address",
          "name": "from",
          "type": "address"
        },
        {
          "internalType": "address",
          "name": "to",
          "type": "address"
        },
        {
          "internalType": "euint64",
          "name": "amount",
          "type": "bytes32"
        }
      ],
      "name": "unwrap",
      "outputs": [],
      "stateMutability": "nonpayable",
      "type": "function"
    },
    {
      "inputs": [
        {
          "internalType": "address",
          "name": "to",
          "type": "address"
        },
        {
          "internalType": "uint256",
          "name": "amount",
          "type": "uint256"
        }
      ],
      "name": "wrap",
      "outputs": [],
      "stateMutability": "nonpayable",
      "type": "function"
    }
  ],
  "bytecode": "0x60e060405234801561000f575f5ffd5b5060405161314438038061314483398101604081905261002e916103d8565b808484846101ac6100d0604080516080810182525f808252602082018190529181018290526060810191909152506040805160808101825273687820221192c5b662b25367f70076a37bc79b6c815273848b0066793bcc60346da1f49049357399b8d5956020820152731364cbbf2cdf5032c47d8226a6f6fbd2afcdacac9181019190915273bc91f3dad1a5f19f8390c400196e58073b6a0bc4606082015290565b80517fed8d60e34876f751cc8b014c560745351147d9de11b9347c854e881b128ea60080546001600160a01b03199081166001600160a01b039384161790915560208301517fed8d60e34876f751cc8b014c560745351147d9de11b9347c854e881b128ea6018054831691841691909117905560408301517fed8d60e34876f751cc8b014c560745351147d9de11b9347c854e881b128ea6028054831691841691909117905560608301517fed8d60e34876f751cc8b014c560745351147d9de11b9347c854e881b128ea6038054909216921691909117905550565b7f5ea69329017273582817d320489fbd94f775580e90c092699ca6f3d12fdf7d0080546001600160a01b03191673a02cda4ca3a71d7c46997716f4283aa851c2881217905560046101fd848261050b565b50600561020a838261050b565b506006610217828261050b565b5050506001600160a01b038216608052505f6102328261027e565b9050600660ff82168110156102655760ff811660a05261025281836105d9565b61025d90600a6106db565b60c052610272565b60ff821660a052600160c0525b50505050505050610726565b60408051600481526024810182526020810180516001600160e01b031663313ce56760e01b17905290515f91829182916001600160a01b038616916102c391906106f0565b5f60405180830381855afa9150503d805f81146102fb576040519150601f19603f3d011682016040523d82523d5f602084013e610300565b606091505b5091509150818015610313575080516020145b15610334578080602001905181019061032c9190610706565b949350505050565b601261032c565b634e487b7160e01b5f52604160045260245ffd5b5f82601f83011261035e575f5ffd5b81516001600160401b038111156103775761037761033b565b604051601f8201601f19908116603f011681016001600160401b03811182821017156103a5576103a561033b565b6040528181528382016020018510156103bc575f5ffd5b8160208501602083015e5f918101602001919091529392505050565b5f5f5f5f608085870312156103eb575f5ffd5b84516001600160401b03811115610400575f5ffd5b61040c8782880161034f565b602087015190955090506001600160401b03811115610429575f5ffd5b6104358782880161034f565b604087015190945090506001600160401b03811115610452575f5ffd5b61045e8782880161034f565b606087015190935090506001600160a01b038116811461047c575f5ffd5b939692955090935050565b600181811c9082168061049b57607f821691505b6020821081036104b957634e487b7160e01b5f52602260045260245ffd5b50919050565b601f82111561050657805f5260205f20601f840160051c810160208510156104e45750805b601f840160051c820191505b81811015610503575f81556001016104f0565b50505b505050565b81516001600160401b038111156105245761052461033b565b610538816105328454610487565b846104bf565b6020601f82116001811461056a575f83156105535750848201515b5f19600385901b1c1916600184901b178455610503565b5f84815260208120601f198516915b828110156105995787850151825560209485019460019092019101610579565b50848210156105b657868401515f19600387901b60f8161c191681555b50505050600190811b01905550565b634e487b7160e01b5f52601160045260245ffd5b60ff82811682821603908111156105f2576105f26105c5565b92915050565b6001815b600184111561063357808504811115610617576106176105c5565b600184161561062557908102905b60019390931c9280026105fc565b935093915050565b5f82610649575060016105f2565b8161065557505f6105f2565b816001811461066b576002811461067557610691565b60019150506105f2565b60ff841115610686576106866105c5565b50506001821b6105f2565b5060208310610133831016604e8410600b84101617156106b4575081810a6105f2565b6106c05f1984846105f8565b805f19048211156106d3576106d36105c5565b029392505050565b5f6106e960ff84168361063b565b9392505050565b5f82518060208501845e5f920191825250919050565b5f60208284031215610716575f5ffd5b815160ff811681146106e9575f5ffd5b60805160a05160c0516129b561078f5f395f81816101c9015281816107fc015281816108bc015281816108f7015281816109ef0152610a3201525f61021101525f81816102ce015281816107d7015281816108420152818161092901526109c901526129b55ff3fe608060405234801561000f575f5ffd5b50600436106101a5575f3560e01c806373ddcfb4116100e8578063c7b8a75e11610093578063de6421191161006e578063de642119146103ec578063e064b9bb146103ff578063e8c15fd414610412578063eb3155b514610425575f5ffd5b8063c7b8a75e146103b3578063d4febb96146103c6578063d747d608146103d9575f5ffd5b8063b6363cf2116100c3578063b6363cf21461036a578063bf376c7a1461038d578063c535803c146103a0575f5ffd5b806373ddcfb41461030b57806388a7ca5c1461031e57806395d89b4114610362575f5ffd5b80633c130d90116101535780635bebed7e1161012e5780635bebed7e146102995780635bf4ef06146102ac5780636f307dc3146102c15780637279e264146102f8575f5ffd5b80633c130d9014610276578063537d3c501461027e5780635409522714610291575f5ffd5b8063313ce56711610183578063313ce5671461020a578063344ff1011461023b57806334c4574314610263575f5ffd5b806306fdde03146101a95780632c4e722e146101c75780632fb74e62146101f7575b5f5ffd5b6101b1610438565b6040516101be91906120d4565b60405180910390f35b7f00000000000000000000000000000000000000000000000000000000000000005b6040519081526020016101be565b6101e961020536600461213f565b6104c8565b60405160ff7f00000000000000000000000000000000000000000000000000000000000000001681526020016101be565b6101e9610249366004612195565b6001600160a01b03165f9081526020819052604090205490565b6101e96102713660046121ae565b61051b565b6101b16105c4565b6101e961028c36600461213f565b6105d3565b6003546101e9565b6101e96102a7366004612247565b610635565b6102bf6102ba36600461226f565b610689565b005b6040516001600160a01b037f00000000000000000000000000000000000000000000000000000000000000001681526020016101be565b6102bf61030636600461238a565b6106d9565b6102bf61031936600461238a565b610766565b61033161032c36600461226f565b610836565b6040517fffffffff0000000000000000000000000000000000000000000000000000000090911681526020016101be565b6101b1610963565b61037d61037836600461247f565b610972565b60405190151581526020016101be565b6102bf61039b366004612247565b6109c4565b6102bf6103ae3660046124a7565b610a5c565b6101e96103c136600461226f565b610b01565b6102bf6103d43660046124be565b610ba4565b6102bf6103e73660046124fd565b610bb3565b6101e96103fa366004612550565b610bc6565b6101e961040d36600461226f565b610c22565b6102bf6104203660046125d9565b610ca7565b6101e96104333660046125d9565b610cf1565b60606004805461044790612613565b80601f016020809104026020016040519081016040528092919081815260200182805461047390612613565b80156104be5780601f10610495576101008083540402835291602001916104be565b820191905f5260205f20905b8154815290600101906020018083116104a157829003601f168201915b5050505050905090565b5f610512338661050d8787878080601f0160208091040260200160405190810160405280939291908181526020018383808284375f92019190915250610d9092505050565b610d9d565b95945050505050565b5f6105268833610972565b8833909161055f57604051631ae7729b60e11b81526001600160a01b039283166004820152911660248201526044015b60405180910390fd5b50506105ac88886105a58989898080601f0160208091040260200160405190810160405280939291908181526020018383808284375f92019190915250610d9092505050565b8686610e1d565b90506105b88133610e74565b50979650505050505050565b60606006805461044790612613565b5f6105de8433610e86565b843390916106115760405163118f6e5360e31b815260048101929092526001600160a01b03166024820152604401610556565b50506106203386868686610e1d565b905061062c8133610e74565b50949350505050565b5f6106408233610e86565b823390916106735760405163118f6e5360e31b815260048101929092526001600160a01b03166024820152604401610556565b5050610680338484610d9d565b90505b92915050565b6106d285856106cd8686868080601f0160208091040260200160405190810160405280939291908181526020018383808284375f92019190915250610d9092505050565b610e91565b5050505050565b6106e38382610fb8565b5f83815260026020526040902054838161071357604051630ab5f57d60e01b815260040161055691815260200190565b5060405167ffffffffffffffff8416815281907f83bbbc07896439e5d950a6cead04cbc676180af7a61cecf43f5296475057f5719060200160405180910390a25050505f90815260026020526040812055565b6107708382610fb8565b5f838152600760205260409020546001600160a01b031683816107a957604051630ab5f57d60e01b815260040161055691815260200190565b505f848152600760205260409020805473ffffffffffffffffffffffffffffffffffffffff191690556108307f00000000000000000000000000000000000000000000000000000000000000008261082b7f000000000000000000000000000000000000000000000000000000000000000067ffffffffffffffff881661265f565b61101f565b50505050565b5f336001600160a01b037f000000000000000000000000000000000000000000000000000000000000000016811461088d5760405163299281a560e01b81526001600160a01b039091166004820152602401610556565b505f601483106108a9576108a18385612676565b60601c6108ab565b855b90506108f0816108eb6108e66108e17f00000000000000000000000000000000000000000000000000000000000000008a6126d7565b611093565b6110cd565b6110e3565b505f61091c7f0000000000000000000000000000000000000000000000000000000000000000876126ea565b9050801561094f5761094f7f0000000000000000000000000000000000000000000000000000000000000000888361101f565b50632229f29760e21b979650505050505050565b60606005805461044790612613565b5f816001600160a01b0316836001600160a01b031614806106805750506001600160a01b039182165f90815260016020908152604080832093909416825291909152205465ffffffffffff1642111590565b610a237f00000000000000000000000000000000000000000000000000000000000000003330610a147f0000000000000000000000000000000000000000000000000000000000000000866126ea565b610a1e90866126fd565b611124565b610a57826108eb6108e66108e17f0000000000000000000000000000000000000000000000000000000000000000866126d7565b505050565b610a668133610e86565b81339091610a995760405163118f6e5360e31b815260048101929092526001600160a01b03166024820152604401610556565b50506040805160018082528183019092525f916020808301908036833701905050905081815f81518110610acf57610acf612710565b60209081029190910101525f610aec82631c9e789960e21b61115d565b5f908152600260205260409020929092555050565b5f610b0c8433610e86565b84339091610b3f5760405163118f6e5360e31b815260048101929092526001600160a01b03166024820152604401610556565b5050610b4b8633610972565b86339091610b7f57604051631ae7729b60e11b81526001600160a01b03928316600482015291166024820152604401610556565b5050610b8e8686868686610e1d565b9050610b9a8133610e74565b5095945050505050565b610baf338383611169565b5050565b61083083610bc18484610d90565b6111e0565b5f610c0b33886105a58989898080601f0160208091040260200160405190810160405280939291908181526020018383808284375f92019190915250610d9092505050565b9050610c178133610e74565b509695505050505050565b5f610c2d8633610972565b86339091610c6157604051631ae7729b60e11b81526001600160a01b03928316600482015291166024820152604401610556565b5050610b8e868661050d8787878080601f0160208091040260200160405190810160405280939291908181526020018383808284375f92019190915250610d9092505050565b610cb18133610e86565b81339091610ce45760405163118f6e5360e31b815260048101929092526001600160a01b03166024820152604401610556565b5050610a57838383610e91565b5f610cfc8233610e86565b82339091610d2f5760405163118f6e5360e31b815260048101929092526001600160a01b03166024820152604401610556565b5050610d3b8433610972565b84339091610d6f57604051631ae7729b60e11b81526001600160a01b03928316600482015291166024820152604401610556565b5050610d7c848484610d9d565b9050610d888133610e74565b509392505050565b5f61068083836005611221565b5f806001600160a01b038516610dd257604051631a9bbf8b60e11b81526001600160a01b039091166004820152602401610556565b505f6001600160a01b038416610e0757604051636e41946d60e11b81526001600160a01b039091166004820152602401610556565b50610e1384848461132e565b90505b9392505050565b5f5f610e2a878787610d9d565b90505f610e3b33898985898961150b565b90505f610e5b888a610e5685610e505f6110cd565b8861160f565b61132e565b9050610e67838261161b565b9998505050505050505050565b5f610e7f8383611649565b5090919050565b5f61068083836116bd565b816001600160a01b038116610ec557604051636e41946d60e11b81526001600160a01b039091166004820152602401610556565b506001600160a01b038316331480610ee25750610ee28333610972565b83339091610f1657604051631ae7729b60e11b81526001600160a01b03928316600482015291166024820152604401610556565b50505f610f2384836111e0565b6040805160018082528183019092529192505f91906020808301908036833701905050905081815f81518110610f5b57610f5b612710565b60209081029190910101525f610f7882631cf773ed60e21b61115d565b5f908152600760205260409020805473ffffffffffffffffffffffffffffffffffffffff19166001600160a01b0396909616959095179094555050505050565b5f610fc283611749565b90505f610fcf828461181a565b905080610fef5760405163cf6c44e960e01b815260040160405180910390fd5b60405184907f1af0453083661051f6e56e5c070792320652e612154bf9af8637bb1e7655b99d905f90a250505050565b6040516001600160a01b03838116602483015260448201839052610a5791859182169063a9059cbb906064015b604051602081830303815290604052915060e01b6020820180517bffffffffffffffffffffffffffffffffffffffffffffffffffffffff8381831617835250505050611922565b5f67ffffffffffffffff8211156110c957604080516306dfcc6560e41b8152600481019190915260248101839052604401610556565b5090565b5f6106838267ffffffffffffffff16600561198e565b5f806001600160a01b03841661111857604051636e41946d60e11b81526001600160a01b039091166004820152602401610556565b506106805f848461132e565b6040516001600160a01b0384811660248301528381166044830152606482018390526108309186918216906323b872dd9060840161104c565b5f61068083835f611a30565b6001600160a01b038381165f81815260016020908152604080832094871680845294825291829020805465ffffffffffff191665ffffffffffff871690811790915591519182527f921a218a75d18e8ec5704851e6b234a85725b21a2521ce889622c35dedc1fa12910160405180910390a3505050565b5f806001600160a01b03841661121557604051631a9bbf8b60e11b81526001600160a01b039091166004820152602401610556565b50610680835f8461132e565b7fed8d60e34876f751cc8b014c560745351147d9de11b9347c854e881b128ea6015460405163196d0b9b60e01b81525f915f5160206129605f395f51905f52916001600160a01b039091169063196d0b9b90611287908890339089908990600401612758565b6020604051808303815f875af11580156112a3573d5f5f3e3d5ffd5b505050506040513d601f19601f820116820180604052508101906112c7919061278e565b8154604051630f8e573b60e21b8152600481018390523360248201529193506001600160a01b031690633e395cec906044015f604051808303815f87803b158015611310575f5ffd5b505af1158015611322573d5f5f3e3d5ffd5b50505050509392505050565b5f80806001600160a01b0386166113645761134b60035485611b69565b909250905061135981611bb3565b5060038190556113e8565b6001600160a01b0386165f9081526020819052604090205486816113a757604051636b8830d760e11b81526001600160a01b039091166004820152602401610556565b506113b28186611bbe565b90935091506113c082611bb3565b506113cb8288611be9565b50506001600160a01b0386165f9081526020819052604090208190555b6113fb82856113f65f6110cd565b61160f565b92506001600160a01b03851661142d576114176003548461161b565b905061142281611bb3565b506003819055611481565b6001600160a01b0385165f9081526020819052604090205461144f9084611bf4565b905061145a81611bb3565b506114658186611be9565b506001600160a01b0385165f9081526020819052604090208190555b6001600160a01b0386161561149c5761149a8387611be9565b505b6001600160a01b038516156114b7576114b58386611be9565b505b6114c083611bb3565b5082856001600160a01b0316876001600160a01b03167f67500e8d0ed826d2194f514dd0d8124f35648ab6e3fb5e6ed867134cffe661e960405160405180910390a450509392505050565b5f6001600160a01b0385163b156115f8576040516346083bfd60e01b81526001600160a01b038616906346083bfd90611550908a908a908990899089906004016127a5565b6020604051808303815f875af192505050801561158a575060408051601f3d908101601f191682019092526115879181019061278e565b60015b6115f1573d8080156115b7576040519150601f19603f3d011682016040523d82523d5f602084013e6115bc565b606091505b5080515f036115e957604051636e41946d60e11b81526001600160a01b0387166004820152602401610556565b805181602001fd5b9050611605565b6116026001611c22565b90505b9695505050505050565b5f610e13848484611c3d565b5f8261162d5761162a5f6110cd565b92505b8161163e5761163b5f6110cd565b91505b61068083835f611cca565b5f5160206129605f395f51905f528054604051630f8e573b60e21b8152600481018590526001600160a01b03848116602483015290911690633e395cec906044015b5f604051808303815f87803b1580156116a2575f5ffd5b505af11580156116b4573d5f5f3e3d5ffd5b50505050505050565b5f805f5160206129605f395f51905f5280546040516382027b6d60e01b8152600481018790526001600160a01b0386811660248301529293509116906382027b6d90604401602060405180830381865afa15801561171d573d5f5f3e3d5ffd5b505050506040513d601f19601f8201168201806040525081019061174191906127fa565b949350505050565b5f8181527f5ea69329017273582817d320489fbd94f775580e90c092699ca6f3d12fdf7d0260205260408120546060917f5ea69329017273582817d320489fbd94f775580e90c092699ca6f3d12fdf7d009190036117ba5760405163d66ca67560e01b815260040160405180910390fd5b5f8381526002820160209081526040918290208054835181840281018401909452808452909183018282801561180d57602002820191905f5260205f20905b8154815260200190600101908083116117f9575b5050505050915050919050565b5f60248161182785611d90565b90505f8167ffffffffffffffff811115611843576118436122d9565b6040519080825280601f01601f19166020018201604052801561186d576020820181803683370190505b509050818360208301377fed8d60e34876f751cc8b014c560745351147d9de11b9347c854e881b128ea60254604051632c027b1360e21b81525f5160206129605f395f51905f52916001600160a01b03169063b009ec4c906118d7908a9086908b90600401612853565b6020604051808303815f875af11580156118f3573d5f5f3e3d5ffd5b505050506040513d601f19601f8201168201806040525081019061191791906127fa565b979650505050505050565b5f5f60205f8451602086015f885af180611941576040513d5f823e3d81fd5b50505f513d91508115611958578060011415611965565b6001600160a01b0384163b155b1561083057604051635274afe760e01b81526001600160a01b0385166004820152602401610556565b7fed8d60e34876f751cc8b014c560745351147d9de11b9347c854e881b128ea60154604051639cd07acb60e01b81525f915f5160206129605f395f51905f52916001600160a01b0390911690639cd07acb906119f090879087906004016128dd565b6020604051808303815f875af1158015611a0c573d5f5f3e3d5ffd5b505050506040513d601f19601f82011682018060405250810190611741919061278e565b7f5ea69329017273582817d320489fbd94f775580e90c092699ca6f3d12fdf7d01545f5160206129605f395f51905f528054604051637d6e912360e11b81527f5ea69329017273582817d320489fbd94f775580e90c092699ca6f3d12fdf7d0092916001600160a01b03169063fadd224690611ab09089906004016128f1565b5f604051808303815f87803b158015611ac7575f5ffd5b505af1158015611ad9573d5f5f3e3d5ffd5b50508354604051633263b83b60e01b81526001600160a01b039091169250633263b83b91508690611b129087908b908b90600401612903565b5f604051808303818588803b158015611b29575f5ffd5b505af1158015611b3b573d5f5f3e3d5ffd5b5050505050611b4a8387611e3d565b600182018054905f611b5b83612934565b919050555050509392505050565b5f8083611b8457611b7a6001611c22565b9150829050611bac565b5f611b8f8585611bf4565b9050611b9b8186611eca565b9250611ba883828761160f565b9150505b9250929050565b5f6110c98230611ef8565b5f5f611bca8484611eca565b9150611be082611bda868661161b565b8661160f565b90509250929050565b5f610e7f8383611ef8565b5f82611c0657611c035f6110cd565b92505b81611c1757611c145f6110cd565b91505b61068083835f611f3e565b5f61068382611c31575f611c34565b60015b60ff165f61198e565b5f805f5160206129605f395f51905f526001810154604051637702dcff60e01b81526004810188905260248101879052604481018690529192506001600160a01b031690637702dcff906064016020604051808303815f875af1158015611ca6573d5f5f3e3d5ffd5b505050506040513d601f19601f82011682018060405250810190610512919061278e565b5f5f8215611cdd5750600160f81b611ce0565b505f5b7fed8d60e34876f751cc8b014c560745351147d9de11b9347c854e881b128ea601546040516303056db360e31b815260048101879052602481018690526001600160f81b0319831660448201525f5160206129605f395f51905f52916001600160a01b03169063182b6d98906064015b6020604051808303815f875af1158015611d6c573d5f5f3e3d5ffd5b505050506040513d601f19601f82011682018060405250810190611605919061278e565b80515f9081805b82811015611e31575f858281518110611db257611db2612710565b6020026020010151601e60208110611dcc57611dcc612710565b1a6053811115611dde57611dde612724565b90506009816053811115611df457611df4612724565b60ff161015611e0f57611e0860208461294c565b9250611e28565b60405163ce54a8d160e01b815260040160405180910390fd5b50600101611d97565b5061174160208261294c565b5f8281527f5ea69329017273582817d320489fbd94f775580e90c092699ca6f3d12fdf7d0260205260409020547f5ea69329017273582817d320489fbd94f775580e90c092699ca6f3d12fdf7d009015611eaa57604051633f06d22b60e01b815260040160405180910390fd5b5f8381526002820160209081526040909120835161083092850190612052565b5f82611edc57611ed95f6110cd565b92505b81611eed57611eea5f6110cd565b91505b61068083835f611fc8565b5f5160206129605f395f51905f528054604051635ca4b5b160e11b8152600481018590526001600160a01b0384811660248301529091169063b9496b629060440161168b565b5f5f8215611f515750600160f81b611f54565b505f5b7fed8d60e34876f751cc8b014c560745351147d9de11b9347c854e881b128ea6015460405163022f65e760e31b815260048101879052602481018690526001600160f81b0319831660448201525f5160206129605f395f51905f52916001600160a01b03169063117b2f3890606401611d50565b5f5f8215611fdb5750600160f81b611fde565b505f5b7fed8d60e34876f751cc8b014c560745351147d9de11b9347c854e881b128ea60154604051631391547f60e01b815260048101879052602481018690526001600160f81b0319831660448201525f5160206129605f395f51905f52916001600160a01b031690631391547f90606401611d50565b828054828255905f5260205f2090810192821561208b579160200282015b8281111561208b578251825591602001919060010190612070565b506110c99291505b808211156110c9575f8155600101612093565b5f81518084528060208401602086015e5f602082860101526020601f19601f83011685010191505092915050565b602081525f61068060208301846120a6565b80356001600160a01b03811681146120fc575f5ffd5b919050565b5f5f83601f840112612111575f5ffd5b50813567ffffffffffffffff811115612128575f5ffd5b602083019150836020828501011115611bac575f5ffd5b5f5f5f5f60608587031215612152575f5ffd5b61215b856120e6565b935060208501359250604085013567ffffffffffffffff81111561217d575f5ffd5b61218987828801612101565b95989497509550505050565b5f602082840312156121a5575f5ffd5b610680826120e6565b5f5f5f5f5f5f5f60a0888a0312156121c4575f5ffd5b6121cd886120e6565b96506121db602089016120e6565b955060408801359450606088013567ffffffffffffffff8111156121fd575f5ffd5b6122098a828b01612101565b909550935050608088013567ffffffffffffffff811115612228575f5ffd5b6122348a828b01612101565b989b979a50959850939692959293505050565b5f5f60408385031215612258575f5ffd5b612261836120e6565b946020939093013593505050565b5f5f5f5f5f60808688031215612283575f5ffd5b61228c866120e6565b945061229a602087016120e6565b935060408601359250606086013567ffffffffffffffff8111156122bc575f5ffd5b6122c888828901612101565b969995985093965092949392505050565b634e487b7160e01b5f52604160045260245ffd5b604051601f8201601f1916810167ffffffffffffffff81118282101715612316576123166122d9565b604052919050565b5f82601f83011261232d575f5ffd5b813567ffffffffffffffff811115612347576123476122d9565b61235a601f8201601f19166020016122ed565b81815284602083860101111561236e575f5ffd5b816020850160208301375f918101602001919091529392505050565b5f5f5f6060848603121561239c575f5ffd5b83359250602084013567ffffffffffffffff811681146123ba575f5ffd5b9150604084013567ffffffffffffffff8111156123d5575f5ffd5b8401601f810186136123e5575f5ffd5b803567ffffffffffffffff8111156123ff576123ff6122d9565b8060051b61240f602082016122ed565b9182526020818401810192908101908984111561242a575f5ffd5b6020850192505b8383101561247057823567ffffffffffffffff81111561244f575f5ffd5b61245e8b60208389010161231e565b83525060209283019290910190612431565b80955050505050509250925092565b5f5f60408385031215612490575f5ffd5b612499836120e6565b9150611be0602084016120e6565b5f602082840312156124b7575f5ffd5b5035919050565b5f5f604083850312156124cf575f5ffd5b6124d8836120e6565b9150602083013565ffffffffffff811681146124f2575f5ffd5b809150509250929050565b5f5f5f6060848603121561250f575f5ffd5b612518846120e6565b925060208401359150604084013567ffffffffffffffff81111561253a575f5ffd5b6125468682870161231e565b9150509250925092565b5f5f5f5f5f5f60808789031215612565575f5ffd5b61256e876120e6565b955060208701359450604087013567ffffffffffffffff811115612590575f5ffd5b61259c89828a01612101565b909550935050606087013567ffffffffffffffff8111156125bb575f5ffd5b6125c789828a01612101565b979a9699509497509295939492505050565b5f5f5f606084860312156125eb575f5ffd5b6125f4846120e6565b9250612602602085016120e6565b929592945050506040919091013590565b600181811c9082168061262757607f821691505b60208210810361264557634e487b7160e01b5f52602260045260245ffd5b50919050565b634e487b7160e01b5f52601160045260245ffd5b80820281158282048414176106835761068361264b565b80356bffffffffffffffffffffffff1981169060148410156126bc576bffffffffffffffffffffffff196bffffffffffffffffffffffff198560140360031b1b82161691505b5092915050565b634e487b7160e01b5f52601260045260245ffd5b5f826126e5576126e56126c3565b500490565b5f826126f8576126f86126c3565b500690565b818103818111156106835761068361264b565b634e487b7160e01b5f52603260045260245ffd5b634e487b7160e01b5f52602160045260245ffd5b6054811061275457634e487b7160e01b5f52602160045260245ffd5b9052565b8481526001600160a01b0384166020820152608060408201525f61277f60808301856120a6565b90506105126060830184612738565b5f6020828403121561279e575f5ffd5b5051919050565b6001600160a01b03861681526001600160a01b038516602082015283604082015260806060820152816080820152818360a08301375f81830160a090810191909152601f909201601f19160101949350505050565b5f6020828403121561280a575f5ffd5b81518015158114610e16575f5ffd5b5f8151808452602084019350602083015f5b8281101561284957815186526020958601959091019060010161282b565b5093949350505050565b606081525f6128656060830186612819565b828103602084015261287781866120a6565b9050828103604084015280845180835260208301915060208160051b840101602087015f5b838110156128ce57601f198684030185526128b88383516120a6565b602095860195909350919091019060010161289c565b50909998505050505050505050565b82815260408101610e166020830184612738565b602081525f6106806020830184612819565b838152606060208201525f61291b6060830185612819565b905063ffffffff60e01b83166040830152949350505050565b5f600182016129455761294561264b565b5060010190565b808201808211156106835761068361264b56feed8d60e34876f751cc8b014c560745351147d9de11b9347c854e881b128ea600a26469706673582212207379786272e8bfaf005c2af77247d4aaa1db13e3240eafbdc6d0ef38642891ee64736f6c634300081c0033",
  "linkReferences": {},
  "deployedLinkReferences": {},
  "immutableReferences": {
    "43320": [
      {
        "length": 32,
        "start": 718
      },
      {
        "length": 32,
        "start": 2007
      },
      {
        "length": 32,
        "start": 2114
      },
      {
        "length": 32,
        "start": 2345
      },
      {
        "length": 32,
        "start": 2505
      }
    ],
    "43322": [
      {
        "length": 32,
        "start": 529
      }
    ],
    "43324": [
      {
        "length": 32,
        "start": 457
      },
      {
        "length": 32,
        "start": 2044
      },
      {
        "length": 32,
        "start": 2236
      },
      {
        "length": 32,
        "start": 2295
      },
      {
        "length": 32,
        "start": 2543
      },
      {
        "length": 32,
        "start": 2610
      }
    ]
  },
  "inputSourceName": "project/contracts/WrapperToken.sol",
  "buildInfoId": "solc-0_8_28-2801f6b37e265c8c1dea3f85650c7110ee32436d"
}